{
  "abi": [
    {
      "inputs": [],
      "stateMutability": "nonpayable",
      "type": "constructor"
    },
    {
      "inputs": [],
      "name": "get_ZK_binary_receivables",
      "outputs": [
        {
          "components": [
            {
              "internalType": "uint32",
              "name": "receivable_ID",
              "type": "uint32"
            },
            {
              "internalType": "address",
              "name": "debtor_contract_address",
              "type": "address"
            },
            {
              "components": [
                {
                  "internalType": "uint256",
                  "name": "commitment_x",
                  "type": "uint256"
                },
                {
                  "internalType": "bool",
                  "name": "commitment_y_odd",
                  "type": "bool"
                }
              ],
              "internalType": "struct ZK_Receivables.commitment",
              "name": "l",
              "type": "tuple"
            },
            {
              "components": [
                {
                  "internalType": "uint256",
                  "name": "commitment_x",
                  "type": "uint256"
                },
                {
                  "internalType": "bool",
                  "name": "commitment_y_odd",
                  "type": "bool"
                }
              ],
              "internalType": "struct ZK_Receivables.commitment",
              "name": "a0",
              "type": "tuple"
            },
            {
              "components": [
                {
                  "internalType": "uint256",
                  "name": "commitment_x",
                  "type": "uint256"
                },
                {
                  "internalType": "bool",
                  "name": "commitment_y_odd",
                  "type": "bool"
                }
              ],
              "internalType": "struct ZK_Receivables.commitment",
              "name": "a1",
              "type": "tuple"
            },
            {
              "internalType": "uint256",
              "name": "k",
              "type": "uint256"
            },
            {
              "internalType": "uint256",
              "name": "c1",
              "type": "uint256"
            },
            {
              "internalType": "uint256",
              "name": "r0",
              "type": "uint256"
            },
            {
              "internalType": "uint256",
              "name": "r1",
              "type": "uint256"
            }
          ],
          "internalType": "struct ZK_Receivables.ZK_binary_proof[]",
          "name": "",
          "type": "tuple[]"
        }
      ],
      "stateMutability": "view",
      "type": "function"
    },
    {
      "inputs": [],
      "name": "get_ZK_receivables",
      "outputs": [
        {
          "components": [
            {
              "internalType": "uint32",
              "name": "receivable_ID",
              "type": "uint32"
            },
            {
              "internalType": "address",
              "name": "debtor_contract_address",
              "type": "address"
            },
            {
              "components": [
                {
                  "internalType": "uint256",
                  "name": "commitment_x",
                  "type": "uint256"
                },
                {
                  "internalType": "bool",
                  "name": "commitment_y_odd",
                  "type": "bool"
                }
              ],
              "internalType": "struct ZK_Receivables.commitment",
              "name": "c1",
              "type": "tuple"
            },
            {
              "components": [
                {
                  "internalType": "uint256",
                  "name": "commitment_x",
                  "type": "uint256"
                },
                {
                  "internalType": "bool",
                  "name": "commitment_y_odd",
                  "type": "bool"
                }
              ],
              "internalType": "struct ZK_Receivables.commitment",
              "name": "c2",
              "type": "tuple"
            },
            {
              "components": [
                {
                  "internalType": "uint256",
                  "name": "commitment_x",
                  "type": "uint256"
                },
                {
                  "internalType": "bool",
                  "name": "commitment_y_odd",
                  "type": "bool"
                }
              ],
              "internalType": "struct ZK_Receivables.commitment",
              "name": "c3",
              "type": "tuple"
            },
            {
              "components": [
                {
                  "internalType": "uint256",
                  "name": "commitment_x",
                  "type": "uint256"
                },
                {
                  "internalType": "bool",
                  "name": "commitment_y_odd",
                  "type": "bool"
                }
              ],
              "internalType": "struct ZK_Receivables.commitment",
              "name": "T1",
              "type": "tuple"
            },
            {
              "components": [
                {
                  "internalType": "uint256",
                  "name": "commitment_x",
                  "type": "uint256"
                },
                {
                  "internalType": "bool",
                  "name": "commitment_y_odd",
                  "type": "bool"
                }
              ],
              "internalType": "struct ZK_Receivables.commitment",
              "name": "T2",
              "type": "tuple"
            },
            {
              "components": [
                {
                  "internalType": "uint256",
                  "name": "commitment_x",
                  "type": "uint256"
                },
                {
                  "internalType": "bool",
                  "name": "commitment_y_odd",
                  "type": "bool"
                }
              ],
              "internalType": "struct ZK_Receivables.commitment",
              "name": "T3",
              "type": "tuple"
            },
            {
              "components": [
                {
                  "internalType": "uint256",
                  "name": "commitment_x",
                  "type": "uint256"
                },
                {
                  "internalType": "bool",
                  "name": "commitment_y_odd",
                  "type": "bool"
                }
              ],
              "internalType": "struct ZK_Receivables.commitment",
              "name": "T4",
              "type": "tuple"
            },
            {
              "components": [
                {
                  "internalType": "uint256",
                  "name": "commitment_x",
                  "type": "uint256"
                },
                {
                  "internalType": "bool",
                  "name": "commitment_y_odd",
                  "type": "bool"
                }
              ],
              "internalType": "struct ZK_Receivables.commitment",
              "name": "hvik",
              "type": "tuple"
            },
            {
              "internalType": "uint256",
              "name": "s1",
              "type": "uint256"
            },
            {
              "internalType": "uint256",
              "name": "s2",
              "type": "uint256"
            },
            {
              "internalType": "uint256",
              "name": "s3",
              "type": "uint256"
            },
            {
              "internalType": "uint256",
              "name": "s4",
              "type": "uint256"
            },
            {
              "internalType": "uint256",
              "name": "s5",
              "type": "uint256"
            },
            {
              "internalType": "uint256",
              "name": "s6",
              "type": "uint256"
            },
            {
              "internalType": "uint256",
              "name": "k",
              "type": "uint256"
            }
          ],
          "internalType": "struct ZK_Receivables.ZK_proofs[]",
          "name": "",
          "type": "tuple[]"
        }
      ],
      "stateMutability": "view",
      "type": "function"
    },
    {
      "inputs": [],
      "name": "get_description",
      "outputs": [
        {
          "internalType": "address",
          "name": "",
          "type": "address"
        },
        {
          "internalType": "string",
          "name": "",
          "type": "string"
        },
        {
          "internalType": "uint32",
          "name": "",
          "type": "uint32"
        }
      ],
      "stateMutability": "view",
      "type": "function"
    },
    {
      "inputs": [],
      "name": "get_total_commitments",
      "outputs": [
        {
          "components": [
            {
              "components": [
                {
                  "internalType": "uint256",
                  "name": "commitment_x",
                  "type": "uint256"
                },
                {
                  "internalType": "bool",
                  "name": "commitment_y_odd",
                  "type": "bool"
                }
              ],
              "internalType": "struct ZK_Receivables.commitment",
              "name": "total_commitment",
              "type": "tuple"
            },
            {
              "internalType": "uint256",
              "name": "total_random_factor",
              "type": "uint256"
            },
            {
              "internalType": "uint32",
              "name": "total_receivables",
              "type": "uint32"
            }
          ],
          "internalType": "struct ZK_Receivables.total_commitments",
          "name": "",
          "type": "tuple"
        }
      ],
      "stateMutability": "view",
      "type": "function"
    },
    {
      "inputs": [],
      "name": "owner",
      "outputs": [
        {
          "internalType": "address",
          "name": "",
          "type": "address"
        }
      ],
      "stateMutability": "view",
      "type": "function"
    },
    {
      "inputs": [
        {
          "components": [
            {
              "internalType": "uint32",
              "name": "receivable_ID",
              "type": "uint32"
            },
            {
              "internalType": "address",
              "name": "debtor_contract_address",
              "type": "address"
            },
            {
              "components": [
                {
                  "internalType": "uint256",
                  "name": "commitment_x",
                  "type": "uint256"
                },
                {
                  "internalType": "bool",
                  "name": "commitment_y_odd",
                  "type": "bool"
                }
              ],
              "internalType": "struct ZK_Receivables.commitment",
              "name": "c1",
              "type": "tuple"
            },
            {
              "components": [
                {
                  "internalType": "uint256",
                  "name": "commitment_x",
                  "type": "uint256"
                },
                {
                  "internalType": "bool",
                  "name": "commitment_y_odd",
                  "type": "bool"
                }
              ],
              "internalType": "struct ZK_Receivables.commitment",
              "name": "c2",
              "type": "tuple"
            },
            {
              "components": [
                {
                  "internalType": "uint256",
                  "name": "commitment_x",
                  "type": "uint256"
                },
                {
                  "internalType": "bool",
                  "name": "commitment_y_odd",
                  "type": "bool"
                }
              ],
              "internalType": "struct ZK_Receivables.commitment",
              "name": "c3",
              "type": "tuple"
            },
            {
              "components": [
                {
                  "internalType": "uint256",
                  "name": "commitment_x",
                  "type": "uint256"
                },
                {
                  "internalType": "bool",
                  "name": "commitment_y_odd",
                  "type": "bool"
                }
              ],
              "internalType": "struct ZK_Receivables.commitment",
              "name": "T1",
              "type": "tuple"
            },
            {
              "components": [
                {
                  "internalType": "uint256",
                  "name": "commitment_x",
                  "type": "uint256"
                },
                {
                  "internalType": "bool",
                  "name": "commitment_y_odd",
                  "type": "bool"
                }
              ],
              "internalType": "struct ZK_Receivables.commitment",
              "name": "T2",
              "type": "tuple"
            },
            {
              "components": [
                {
                  "internalType": "uint256",
                  "name": "commitment_x",
                  "type": "uint256"
                },
                {
                  "internalType": "bool",
                  "name": "commitment_y_odd",
                  "type": "bool"
                }
              ],
              "internalType": "struct ZK_Receivables.commitment",
              "name": "T3",
              "type": "tuple"
            },
            {
              "components": [
                {
                  "internalType": "uint256",
                  "name": "commitment_x",
                  "type": "uint256"
                },
                {
                  "internalType": "bool",
                  "name": "commitment_y_odd",
                  "type": "bool"
                }
              ],
              "internalType": "struct ZK_Receivables.commitment",
              "name": "T4",
              "type": "tuple"
            },
            {
              "components": [
                {
                  "internalType": "uint256",
                  "name": "commitment_x",
                  "type": "uint256"
                },
                {
                  "internalType": "bool",
                  "name": "commitment_y_odd",
                  "type": "bool"
                }
              ],
              "internalType": "struct ZK_Receivables.commitment",
              "name": "hvik",
              "type": "tuple"
            },
            {
              "internalType": "uint256",
              "name": "s1",
              "type": "uint256"
            },
            {
              "internalType": "uint256",
              "name": "s2",
              "type": "uint256"
            },
            {
              "internalType": "uint256",
              "name": "s3",
              "type": "uint256"
            },
            {
              "internalType": "uint256",
              "name": "s4",
              "type": "uint256"
            },
            {
              "internalType": "uint256",
              "name": "s5",
              "type": "uint256"
            },
            {
              "internalType": "uint256",
              "name": "s6",
              "type": "uint256"
            },
            {
              "internalType": "uint256",
              "name": "k",
              "type": "uint256"
            }
          ],
          "internalType": "struct ZK_Receivables.ZK_proofs",
          "name": "_ZK_proof",
          "type": "tuple"
        }
      ],
      "name": "set_ZK_receivable",
      "outputs": [
        {
          "internalType": "bool",
          "name": "",
          "type": "bool"
        }
      ],
      "stateMutability": "nonpayable",
      "type": "function"
    },
    {
      "inputs": [
        {
          "components": [
            {
              "internalType": "uint32",
              "name": "receivable_ID",
              "type": "uint32"
            },
            {
              "internalType": "address",
              "name": "debtor_contract_address",
              "type": "address"
            },
            {
              "components": [
                {
                  "internalType": "uint256",
                  "name": "commitment_x",
                  "type": "uint256"
                },
                {
                  "internalType": "bool",
                  "name": "commitment_y_odd",
                  "type": "bool"
                }
              ],
              "internalType": "struct ZK_Receivables.commitment",
              "name": "l",
              "type": "tuple"
            },
            {
              "components": [
                {
                  "internalType": "uint256",
                  "name": "commitment_x",
                  "type": "uint256"
                },
                {
                  "internalType": "bool",
                  "name": "commitment_y_odd",
                  "type": "bool"
                }
              ],
              "internalType": "struct ZK_Receivables.commitment",
              "name": "a0",
              "type": "tuple"
            },
            {
              "components": [
                {
                  "internalType": "uint256",
                  "name": "commitment_x",
                  "type": "uint256"
                },
                {
                  "internalType": "bool",
                  "name": "commitment_y_odd",
                  "type": "bool"
                }
              ],
              "internalType": "struct ZK_Receivables.commitment",
              "name": "a1",
              "type": "tuple"
            },
            {
              "internalType": "uint256",
              "name": "k",
              "type": "uint256"
            },
            {
              "internalType": "uint256",
              "name": "c1",
              "type": "uint256"
            },
            {
              "internalType": "uint256",
              "name": "r0",
              "type": "uint256"
            },
            {
              "internalType": "uint256",
              "name": "r1",
              "type": "uint256"
            }
          ],
          "internalType": "struct ZK_Receivables.ZK_binary_proof",
          "name": "_ZK_b_proof",
          "type": "tuple"
        }
      ],
      "name": "set_ZK_receivable_binary",
      "outputs": [
        {
          "internalType": "bool",
          "name": "",
          "type": "bool"
        }
      ],
      "stateMutability": "nonpayable",
      "type": "function"
    },
    {
      "inputs": [
        {
          "internalType": "string",
          "name": "_owner_name",
          "type": "string"
        },
        {
          "internalType": "uint32",
          "name": "_owner_ID",
          "type": "uint32"
        }
      ],
      "name": "set_description",
      "outputs": [
        {
          "internalType": "bool",
          "name": "",
          "type": "bool"
        }
      ],
      "stateMutability": "nonpayable",
      "type": "function"
    },
    {
      "inputs": [
        {
          "components": [
            {
              "internalType": "uint256",
              "name": "commitment_x",
              "type": "uint256"
            },
            {
              "internalType": "bool",
              "name": "commitment_y_odd",
              "type": "bool"
            }
          ],
          "internalType": "struct ZK_Receivables.commitment",
          "name": "_total_commitments",
          "type": "tuple"
        },
        {
          "internalType": "uint256",
          "name": "_total_random_factor",
          "type": "uint256"
        },
        {
          "internalType": "uint32",
          "name": "_total_receivables",
          "type": "uint32"
        }
      ],
      "name": "set_total_commitments",
      "outputs": [
        {
          "internalType": "bool",
          "name": "",
          "type": "bool"
        }
      ],
      "stateMutability": "nonpayable",
      "type": "function"
    }
  ],
  "bytecode": "608060405234801561001057600080fd5b5060098054336001600160a01b03199182168117909255600080549091169091178155604080516020810190915290815260019061004e908261010d565b506002805463ffffffff191690556101cf565b634e487b7160e01b600052604160045260246000fd5b600181811c9082168061008b57607f821691505b6020821081036100ab57634e487b7160e01b600052602260045260246000fd5b50919050565b601f821115610108578282111561010857806000526020600020601f840160051c60208510156100df575060005b90810190601f840160051c0360005b81811015610104576000838201556001016100ee565b5050505b505050565b81516001600160401b0381111561012657610126610061565b61013a816101348454610077565b846100b1565b6020601f82116001811461016e57600083156101565750848201515b600019600385901b1c1916600184901b1784556101c8565b600084815260208120601f198516915b8281101561019e578785015182556020948501946001909201910161017e565b50848210156101bc5786840151600019600387901b60f8161c191681555b505060018360011b0184555b5050505050565b6116e1806101de6000396000f3fe608060405234801561001057600080fd5b50600436106100935760003560e01c8063839d7f1111610066578063839d7f11146101875780638da5cb5b1461019e578063906e62a9146101c9578063a3c05866146101de578063f2e25dc9146101f157600080fd5b806310fad4091461009857806330d74f51146100c057806362da1e59146100d357806370c18e69146100e8575b600080fd5b6100ab6100a6366004610f72565b610204565b60405190151581526020015b60405180910390f35b6100ab6100ce36600461101b565b61050d565b6100db6105a6565b6040516100b791906110c6565b6101546040805160a0810182526000606082018181526080830182905282526020820181905291810191909152506040805160a0810182526005546060820190815260065460ff16151560808301528152600754602082015260085463ffffffff169181019190915290565b604080518251805182526020908101511515818301528301518183015291015163ffffffff1660608201526080016100b7565b61018f6106b8565b6040516100b7939291906111ae565b6009546101b1906001600160a01b031681565b6040516001600160a01b0390911681526020016100b7565b6101d1610774565b6040516100b79190611218565b6100ab6101ec3660046113a4565b610943565b6100ab6101ff3660046114d3565b610dcf565b6009546000906001600160a01b0316331461023a5760405162461bcd60e51b815260040161023190611510565b60405180910390fd5b506040805161012081018252825163ffffffff90811682526020808501516001600160a01b0390811682850190815285518087018752878701805151825251840151151581850152858701908152865180880188526060808a01805151835251860151151582870152870190815287518089019098526080808a018051518a5251860151151589870152870197885260a0808a015190880190815260c0808b015190890190815260e0808c0151908a019081526101009b8c01519b8a019b8c5260048054600181810183556000929092529a51600b909b027f8a35acfbc15ff81a39ae7d344fd709f28e8600b4aa8c65c6b64bfe7fe36bd19b810180549851909916640100000000026001600160c01b03199098169b909a169a909a1795909517909555915180517f8a35acfbc15ff81a39ae7d344fd709f28e8600b4aa8c65c6b64bfe7fe36bd19c8801558501517f8a35acfbc15ff81a39ae7d344fd709f28e8600b4aa8c65c6b64bfe7fe36bd19d8701805491151560ff19928316179055905180517f8a35acfbc15ff81a39ae7d344fd709f28e8600b4aa8c65c6b64bfe7fe36bd19e8801558501517f8a35acfbc15ff81a39ae7d344fd709f28e8600b4aa8c65c6b64bfe7fe36bd19f87018054911515918316919091179055965180517f8a35acfbc15ff81a39ae7d344fd709f28e8600b4aa8c65c6b64bfe7fe36bd1a0870155909301517f8a35acfbc15ff81a39ae7d344fd709f28e8600b4aa8c65c6b64bfe7fe36bd1a185018054911515919097161790955590517f8a35acfbc15ff81a39ae7d344fd709f28e8600b4aa8c65c6b64bfe7fe36bd1a2830155517f8a35acfbc15ff81a39ae7d344fd709f28e8600b4aa8c65c6b64bfe7fe36bd1a382015591517f8a35acfbc15ff81a39ae7d344fd709f28e8600b4aa8c65c6b64bfe7fe36bd1a483015591517f8a35acfbc15ff81a39ae7d344fd709f28e8600b4aa8c65c6b64bfe7fe36bd1a59091015590565b6009546000906001600160a01b031633146105795760405162461bcd60e51b815260206004820152602660248201527f4f6e6c7920746865206f776e65722063616e207365742074686520646573637260448201526534b83a34b7b760d11b6064820152608401610231565b600161058584826115e8565b50506002805463ffffffff831663ffffffff19909116179055600192915050565b60606004805480602002602001604051908101604052809291908181526020016000905b828210156106af5760008481526020908190206040805161012081018252600b8602909201805463ffffffff8116845264010000000090046001600160a01b031683850152815180830183526001808301548252600283015460ff90811615158388015285850192909252835180850185526003840154815260048401548316151581880152606086015283518085019094526005830154845260068301549091161515838601526080840192909252600781015460a0840152600881015460c0840152600981015460e0840152600a015461010083015290835290920191016105ca565b50505050905090565b600080546002546001805460609385936001600160a01b03909116929163ffffffff9091169082906106e990611552565b80601f016020809104026020016040519081016040528092919081815260200182805461071590611552565b80156107625780601f1061073757610100808354040283529160200191610762565b820191906000526020600020905b81548152906001019060200180831161074557829003601f168201915b50505050509150925092509250909192565b60606003805480602002602001604051908101604052809291908181526020016000905b828210156106af576000848152602090819020604080516102208101825260188602909201805463ffffffff8116845264010000000090046001600160a01b031683850152815180830183526001808301548252600283015460ff908116151583880152858501929092528351808501855260038401548152600484015483161515818801526060860152835180850185526005840154815260068401548316151581880152608086015283518085018552600784015481526008840154831615158188015260a08601528351808501855260098401548152600a840154831615158188015260c086015283518085018552600b8401548152600c840154831615158188015260e086015283518085018552600d8401548152600e84015483161515818801526101008601528351808501909452600f8301548452601083015490911615158386015261012084019290925260118101546101408401526012810154610160840152601381015461018084015260148101546101a084015260158101546101c084015260168101546101e0840152601701546102008301529083529092019101610798565b6009546000906001600160a01b031633146109705760405162461bcd60e51b815260040161023190611510565b6003604051806102200160405280846000015163ffffffff16815260200184602001516001600160a01b0316815260200160405180604001604052808660400151600001518152602001866040015160200151151581525081526020016040518060400160405280866060015160000151815260200186606001516020015115158152508152602001604051806040016040528086608001516000015181526020018660800151602001511515815250815260200160405180604001604052808660a001516000015181526020018660a00151602001511515815250815260200160405180604001604052808660c001516000015181526020018660c00151602001511515815250815260200160405180604001604052808660e001516000015181526020018660e0015160200151151581525081526020016040518060400160405280866101000151600001518152602001866101000151602001511515815250815260200160405180604001604052808661012001516000015181526020018661012001516020015115158152508152602001846101400151815260200184610160015181526020018461018001518152602001846101a001518152602001846101c001518152602001846101e001518152602001846102000151815250908060018154018082558091505060019003906000526020600020906018020160009091909190915060008201518160000160006101000a81548163ffffffff021916908363ffffffff16021790555060208201518160000160046101000a8154816001600160a01b0302191690836001600160a01b031602179055506040820151816001016000820151816000015560208201518160010160006101000a81548160ff02191690831515021790555050506060820151816003016000820151816000015560208201518160010160006101000a81548160ff02191690831515021790555050506080820151816005016000820151816000015560208201518160010160006101000a81548160ff021916908315150217905550505060a0820151816007016000820151816000015560208201518160010160006101000a81548160ff021916908315150217905550505060c0820151816009016000820151816000015560208201518160010160006101000a81548160ff021916908315150217905550505060e082015181600b016000820151816000015560208201518160010160006101000a81548160ff021916908315150217905550505061010082015181600d016000820151816000015560208201518160010160006101000a81548160ff021916908315150217905550505061012082015181600f016000820151816000015560208201518160010160006101000a81548160ff02191690831515021790555050506101408201518160110155610160820151816012015561018082015181601301556101a082015181601401556101c082015181601501556101e082015181601601556102008201518160170155505060019050919050565b6009546000906001600160a01b03163314610dfc5760405162461bcd60e51b815260040161023190611510565b50604080518082019091528351808252602080860151151592018290526005556006805460ff1916909117905560078290556008805463ffffffff831663ffffffff1990911617905560019392505050565b634e487b7160e01b600052604160045260246000fd5b604051610120810167ffffffffffffffff81118282101715610e8857610e88610e4e565b60405290565b604051610220810167ffffffffffffffff81118282101715610e8857610e88610e4e565b604051601f8201601f1916810167ffffffffffffffff81118282101715610edb57610edb610e4e565b604052919050565b803563ffffffff81168114610ef757600080fd5b919050565b80356001600160a01b0381168114610ef757600080fd5b600060408284031215610f2557600080fd5b6040805190810167ffffffffffffffff81118282101715610f4857610f48610e4e565b6040528235815290508060208301358015158114610f6557600080fd5b6020919091015292915050565b6000610180828403128015610f8657600080fd5b506000610f91610e64565b610f9a84610ee3565b8152610fa860208501610efc565b6020820152610fba8560408601610f13565b6040820152610fcc8560808601610f13565b6060820152610fde8560c08601610f13565b60808201526101008481013560a083015261012085013560c083015261014085013560e08301526101609094013593810193909352509092915050565b6000806040838503121561102e57600080fd5b823567ffffffffffffffff81111561104557600080fd5b8301601f8101851361105657600080fd5b803567ffffffffffffffff81111561107057611070610e4e565b611083601f8201601f1916602001610eb2565b81815286602083850101111561109857600080fd5b816020840160208301376000602083830101528094505050506110bd60208401610ee3565b90509250929050565b602080825282518282018190526000918401906040840190835b818110156111a357835163ffffffff8151168452602081015161110e60208601826001600160a01b03169052565b50604081015161112d6040860182805182526020908101511515910152565b506060810151805160808601526020810151151560a0860152506080810151805160c08601526020810151151560e08601525060a08101516101008581019190915260c082015161012086015260e0820151610140860152015161016084015260209390930192610180909201916001016110e0565b509095945050505050565b60018060a01b0384168152606060208201526000835180606084015260005b818110156111ea57602081870181015160808684010152016111cd565b506000608082850101526080601f19601f83011684010191505063ffffffff83166040830152949350505050565b602080825282518282018190526000918401906040840190835b818110156111a3578351805163ffffffff168452602081015161126060208601826001600160a01b03169052565b50604081015161127f6040860182805182526020908101511515910152565b506060810151805160808601526020810151151560a0860152506080810151805160c08601526020810151151560e08601525060a08101518051610100860152602081015115156101208601525060c08101518051610140860152602081015115156101608601525060e08101518051610180860152602081015115156101a08601525061010081015180516101c0860152602081015115156101e086015250610120810151805161020086015260208101511515610220860152506101408101516102408501526101608101516102608501526101808101516102808501526101a08101516102a08501526101c08101516102c08501526101e08101516102e085015261020001516103008401526020939093019261032090920191600101611232565b60006103208284031280156113b857600080fd5b5060006113c3610e8e565b6113cc84610ee3565b81526113da60208501610efc565b60208201526113ec8560408601610f13565b60408201526113fe8560808601610f13565b60608201526114108560c08601610f13565b6080820152611423856101008601610f13565b60a0820152611436856101408601610f13565b60c0820152611449856101808601610f13565b60e082015261145c856101c08601610f13565b610100820152611470856102008601610f13565b6101208201526102408401356101408201526102608401356101608201526102808401356101808201526102a08401356101a08201526102c08401356101c08201526102e08401356101e082015261030090930135610200840152509092915050565b6000806000608084860312156114e857600080fd5b6114f28585610f13565b92506040840135915061150760608501610ee3565b90509250925092565b60208082526022908201527f4f6e6c7920746865206f776e65722063616e2061646420636f6d6d69746d656e604082015261747360f01b606082015260800190565b600181811c9082168061156657607f821691505b60208210810361158657634e487b7160e01b600052602260045260246000fd5b50919050565b601f8211156115e357828211156115e357806000526020600020601f840160051c60208510156115ba575060005b90810190601f840160051c0360005b818110156115df576000838201556001016115c9565b5050505b505050565b815167ffffffffffffffff81111561160257611602610e4e565b611616816116108454611552565b8461158c565b6020601f82116001811461164a57600083156116325750848201515b600019600385901b1c1916600184901b1784556116a4565b600084815260208120601f198516915b8281101561167a578785015182556020948501946001909201910161165a565b50848210156116985786840151600019600387901b60f8161c191681555b505060018360011b0184555b505050505056fea2646970667358221220db60a7cfc690e65bd31cc834936faf4dae8468db0b3f41f5b4aa1472eacf4f4e64736f6c63430008230033",
  "bytecodeSha1": "6d7cd786741c58f21f8337c48407428dd4c49476",
  "compiler": {
    "evm_version": "istanbul",
    "optimizer": {
      "enabled": true,
      "runs": 200
    },
    "version": "0.8.35+commit.47b9dedd"
  },
  "contractName": "ZK_Receivables",
  "language": "Solidity",
  "natspec": {
    "kind": "dev",
    "methods": {},
    "version": 1
  },
  "opcodes": "PUSH1 0x80 PUSH1 0x40 MSTORE CALLVALUE DUP1 ISZERO PUSH2 0x10 JUMPI PUSH1 0x0 DUP1 REVERT JUMPDEST POP PUSH1 0x4 CALLDATASIZE LT PUSH2 0x93 JUMPI PUSH1 0x0 CALLDATALOAD PUSH1 0xE0 SHR DUP1 PUSH4 0x839D7F11 GT PUSH2 0x66 JUMPI DUP1 PUSH4 0x839D7F11 EQ PUSH2 0x187 JUMPI DUP1 PUSH4 0x8DA5CB5B EQ PUSH2 0x19E JUMPI DUP1 PUSH4 0x906E62A9 EQ PUSH2 0x1C9 JUMPI DUP1 PUSH4 0xA3C05866 EQ PUSH2 0x1DE JUMPI DUP1 PUSH4 0xF2E25DC9 EQ PUSH2 0x1F1 JUMPI PUSH1 0x0 DUP1 REVERT JUMPDEST DUP1 PUSH4 0x10FAD409 EQ PUSH2 0x98 JUMPI DUP1 PUSH4 0x30D74F51 EQ PUSH2 0xC0 JUMPI DUP1 PUSH4 0x62DA1E59 EQ PUSH2 0xD3 JUMPI DUP1 PUSH4 0x70C18E69 EQ PUSH2 0xE8 JUMPI JUMPDEST PUSH1 0x0 DUP1 REVERT JUMPDEST PUSH2 0xAB PUSH2 0xA6 CALLDATASIZE PUSH1 0x4 PUSH2 0xF72 JUMP JUMPDEST PUSH2 0x204 JUMP JUMPDEST PUSH1 0x40 MLOAD SWAP1 ISZERO ISZERO DUP2 MSTORE PUSH1 0x20 ADD JUMPDEST PUSH1 0x40 MLOAD DUP1 SWAP2 SUB SWAP1 RETURN JUMPDEST PUSH2 0xAB PUSH2 0xCE CALLDATASIZE PUSH1 0x4 PUSH2 0x101B JUMP JUMPDEST PUSH2 0x50D JUMP JUMPDEST PUSH2 0xDB PUSH2 0x5A6 JUMP JUMPDEST PUSH1 0x40 MLOAD PUSH2 0xB7 SWAP2 SWAP1 PUSH2 0x10C6 JUMP JUMPDEST PUSH2 0x154 PUSH1 0x40 DUP1 MLOAD PUSH1 0xA0 DUP2 ADD DUP3 MSTORE PUSH1 0x0 PUSH1 0x60 DUP3 ADD DUP2 DUP2 MSTORE PUSH1 0x80 DUP4 ADD DUP3 SWAP1 MSTORE DUP3 MSTORE PUSH1 0x20 DUP3 ADD DUP2 SWAP1 MSTORE SWAP2 DUP2 ADD SWAP2 SWAP1 SWAP2 MSTORE POP PUSH1 0x40 DUP1 MLOAD PUSH1 0xA0 DUP2 ADD DUP3 MSTORE PUSH1 0x5 SLOAD PUSH1 0x60 DUP3 ADD SWAP1 DUP2 MSTORE PUSH1 0x6 SLOAD PUSH1 0xFF AND ISZERO ISZERO PUSH1 0x80 DUP4 ADD MSTORE DUP2 MSTORE PUSH1 0x7 SLOAD PUSH1 0x20 DUP3 ADD MSTORE PUSH1 0x8 SLOAD PUSH4 0xFFFFFFFF AND SWAP2 DUP2 ADD SWAP2 SWAP1 SWAP2 MSTORE SWAP1 JUMP JUMPDEST PUSH1 0x40 DUP1 MLOAD DUP3 MLOAD DUP1 MLOAD DUP3 MSTORE PUSH1 0x20 SWAP1 DUP2 ADD MLOAD ISZERO ISZERO DUP2 DUP4 ADD MSTORE DUP4 ADD MLOAD DUP2 DUP4 ADD MSTORE SWAP2 ADD MLOAD PUSH4 0xFFFFFFFF AND PUSH1 0x60 DUP3 ADD MSTORE PUSH1 0x80 ADD PUSH2 0xB7 JUMP JUMPDEST PUSH2 0x18F PUSH2 0x6B8 JUMP JUMPDEST PUSH1 0x40 MLOAD PUSH2 0xB7 SWAP4 SWAP3 SWAP2 SWAP1 PUSH2 0x11AE JUMP JUMPDEST PUSH1 0x9 SLOAD PUSH2 0x1B1 SWAP1 PUSH1 0x1 PUSH1 0x1 PUSH1 0xA0 SHL SUB AND DUP2 JUMP JUMPDEST PUSH1 0x40 MLOAD PUSH1 0x1 PUSH1 0x1 PUSH1 0xA0 SHL SUB SWAP1 SWAP2 AND DUP2 MSTORE PUSH1 0x20 ADD PUSH2 0xB7 JUMP JUMPDEST PUSH2 0x1D1 PUSH2 0x774 JUMP JUMPDEST PUSH1 0x40 MLOAD PUSH2 0xB7 SWAP2 SWAP1 PUSH2 0x1218 JUMP JUMPDEST PUSH2 0xAB PUSH2 0x1EC CALLDATASIZE PUSH1 0x4 PUSH2 0x13A4 JUMP JUMPDEST PUSH2 0x943 JUMP JUMPDEST PUSH2 0xAB PUSH2 0x1FF CALLDATASIZE PUSH1 0x4 PUSH2 0x14D3 JUMP JUMPDEST PUSH2 0xDCF JUMP JUMPDEST PUSH1 0x9 SLOAD PUSH1 0x0 SWAP1 PUSH1 0x1 PUSH1 0x1 PUSH1 0xA0 SHL SUB AND CALLER EQ PUSH2 0x23A JUMPI PUSH1 0x40 MLOAD PUSH3 0x461BCD PUSH1 0xE5 SHL DUP2 MSTORE PUSH1 0x4 ADD PUSH2 0x231 SWAP1 PUSH2 0x1510 JUMP JUMPDEST PUSH1 0x40 MLOAD DUP1 SWAP2 SUB SWAP1 REVERT JUMPDEST POP PUSH1 0x40 DUP1 MLOAD PUSH2 0x120 DUP2 ADD DUP3 MSTORE DUP3 MLOAD PUSH4 0xFFFFFFFF SWAP1 DUP2 AND DUP3 MSTORE PUSH1 0x20 DUP1 DUP6 ADD MLOAD PUSH1 0x1 PUSH1 0x1 PUSH1 0xA0 SHL SUB SWAP1 DUP2 AND DUP3 DUP6 ADD SWAP1 DUP2 MSTORE DUP6 MLOAD DUP1 DUP8 ADD DUP8 MSTORE DUP8 DUP8 ADD DUP1 MLOAD MLOAD DUP3 MSTORE MLOAD DUP5 ADD MLOAD ISZERO ISZERO DUP2 DUP6 ADD MSTORE DUP6 DUP8 ADD SWAP1 DUP2 MSTORE DUP7 MLOAD DUP1 DUP9 ADD DUP9 MSTORE PUSH1 0x60 DUP1 DUP11 ADD DUP1 MLOAD MLOAD DUP4 MSTORE MLOAD DUP7 ADD MLOAD ISZERO ISZERO DUP3 DUP8 ADD MSTORE DUP8 ADD SWAP1 DUP2 MSTORE DUP8 MLOAD DUP1 DUP10 ADD SWAP1 SWAP9 MSTORE PUSH1 0x80 DUP1 DUP11 ADD DUP1 MLOAD MLOAD DUP11 MSTORE MLOAD DUP7 ADD MLOAD ISZERO ISZERO DUP10 DUP8 ADD MSTORE DUP8 ADD SWAP8 DUP9 MSTORE PUSH1 0xA0 DUP1 DUP11 ADD MLOAD SWAP1 DUP9 ADD SWAP1 DUP2 MSTORE PUSH1 0xC0 DUP1 DUP12 ADD MLOAD SWAP1 DUP10 ADD SWAP1 DUP2 MSTORE PUSH1 0xE0 DUP1 DUP13 ADD MLOAD SWAP1 DUP11 ADD SWAP1 DUP2 MSTORE PUSH2 0x100 SWAP12 DUP13 ADD MLOAD SWAP12 DUP11 ADD SWAP12 DUP13 MSTORE PUSH1 0x4 DUP1 SLOAD PUSH1 0x1 DUP2 DUP2 ADD DUP4 SSTORE PUSH1 0x0 SWAP3 SWAP1 SWAP3 MSTORE SWAP11 MLOAD PUSH1 0xB SWAP1 SWAP12 MUL PUSH32 0x8A35ACFBC15FF81A39AE7D344FD709F28E8600B4AA8C65C6B64BFE7FE36BD19B DUP2 ADD DUP1 SLOAD SWAP9 MLOAD SWAP1 SWAP10 AND PUSH5 0x100000000 MUL PUSH1 0x1 PUSH1 0x1 PUSH1 0xC0 SHL SUB NOT SWAP1 SWAP9 AND SWAP12 SWAP1 SWAP11 AND SWAP11 SWAP1 SWAP11 OR SWAP6 SWAP1 SWAP6 OR SWAP1 SWAP6 SSTORE SWAP2 MLOAD DUP1 MLOAD PUSH32 0x8A35ACFBC15FF81A39AE7D344FD709F28E8600B4AA8C65C6B64BFE7FE36BD19C DUP9 ADD SSTORE DUP6 ADD MLOAD PUSH32 0x8A35ACFBC15FF81A39AE7D344FD709F28E8600B4AA8C65C6B64BFE7FE36BD19D DUP8 ADD DUP1 SLOAD SWAP2 ISZERO ISZERO PUSH1 0xFF NOT SWAP3 DUP4 AND OR SWAP1 SSTORE SWAP1 MLOAD DUP1 MLOAD PUSH32 0x8A35ACFBC15FF81A39AE7D344FD709F28E8600B4AA8C65C6B64BFE7FE36BD19E DUP9 ADD SSTORE DUP6 ADD MLOAD PUSH32 0x8A35ACFBC15FF81A39AE7D344FD709F28E8600B4AA8C65C6B64BFE7FE36BD19F DUP8 ADD DUP1 SLOAD SWAP2 ISZERO ISZERO SWAP2 DUP4 AND SWAP2 SWAP1 SWAP2 OR SWAP1 SSTORE SWAP7 MLOAD DUP1 MLOAD PUSH32 0x8A35ACFBC15FF81A39AE7D344FD709F28E8600B4AA8C65C6B64BFE7FE36BD1A0 DUP8 ADD SSTORE SWAP1 SWAP4 ADD MLOAD PUSH32 0x8A35ACFBC15FF81A39AE7D344FD709F28E8600B4AA8C65C6B64BFE7FE36BD1A1 DUP6 ADD DUP1 SLOAD SWAP2 ISZERO ISZERO SWAP2 SWAP1 SWAP8 AND OR SWAP1 SWAP6 SSTORE SWAP1 MLOAD PUSH32 0x8A35ACFBC15FF81A39AE7D344FD709F28E8600B4AA8C65C6B64BFE7FE36BD1A2 DUP4 ADD SSTORE MLOAD PUSH32 0x8A35ACFBC15FF81A39AE7D344FD709F28E8600B4AA8C65C6B64BFE7FE36BD1A3 DUP3 ADD SSTORE SWAP2 MLOAD PUSH32 0x8A35ACFBC15FF81A39AE7D344FD709F28E8600B4AA8C65C6B64BFE7FE36BD1A4 DUP4 ADD SSTORE SWAP2 MLOAD PUSH32 0x8A35ACFBC15FF81A39AE7D344FD709F28E8600B4AA8C65C6B64BFE7FE36BD1A5 SWAP1 SWAP2 ADD SSTORE SWAP1 JUMP JUMPDEST PUSH1 0x9 SLOAD PUSH1 0x0 SWAP1 PUSH1 0x1 PUSH1 0x1 PUSH1 0xA0 SHL SUB AND CALLER EQ PUSH2 0x579 JUMPI PUSH1 0x40 MLOAD PUSH3 0x461BCD PUSH1 0xE5 SHL DUP2 MSTORE PUSH1 0x20 PUSH1 0x4 DUP3 ADD MSTORE PUSH1 0x26 PUSH1 0x24 DUP3 ADD MSTORE PUSH32 0x4F6E6C7920746865206F776E65722063616E2073657420746865206465736372 PUSH1 0x44 DUP3 ADD MSTORE PUSH6 0x34B83A34B7B7 PUSH1 0xD1 SHL PUSH1 0x64 DUP3 ADD MSTORE PUSH1 0x84 ADD PUSH2 0x231 JUMP JUMPDEST PUSH1 0x1 PUSH2 0x585 DUP5 DUP3 PUSH2 0x15E8 JUMP JUMPDEST POP POP PUSH1 0x2 DUP1 SLOAD PUSH4 0xFFFFFFFF DUP4 AND PUSH4 0xFFFFFFFF NOT SWAP1 SWAP2 AND OR SWAP1 SSTORE PUSH1 0x1 SWAP3 SWAP2 POP POP JUMP JUMPDEST PUSH1 0x60 PUSH1 0x4 DUP1 SLOAD DUP1 PUSH1 0x20 MUL PUSH1 0x20 ADD PUSH1 0x40 MLOAD SWAP1 DUP2 ADD PUSH1 0x40 MSTORE DUP1 SWAP3 SWAP2 SWAP1 DUP2 DUP2 MSTORE PUSH1 0x20 ADD PUSH1 0x0 SWAP1 JUMPDEST DUP3 DUP3 LT ISZERO PUSH2 0x6AF JUMPI PUSH1 0x0 DUP5 DUP2 MSTORE PUSH1 0x20 SWAP1 DUP2 SWAP1 KECCAK256 PUSH1 0x40 DUP1 MLOAD PUSH2 0x120 DUP2 ADD DUP3 MSTORE PUSH1 0xB DUP7 MUL SWAP1 SWAP3 ADD DUP1 SLOAD PUSH4 0xFFFFFFFF DUP2 AND DUP5 MSTORE PUSH5 0x100000000 SWAP1 DIV PUSH1 0x1 PUSH1 0x1 PUSH1 0xA0 SHL SUB AND DUP4 DUP6 ADD MSTORE DUP2 MLOAD DUP1 DUP4 ADD DUP4 MSTORE PUSH1 0x1 DUP1 DUP4 ADD SLOAD DUP3 MSTORE PUSH1 0x2 DUP4 ADD SLOAD PUSH1 0xFF SWAP1 DUP2 AND ISZERO ISZERO DUP4 DUP9 ADD MSTORE DUP6 DUP6 ADD SWAP3 SWAP1 SWAP3 MSTORE DUP4 MLOAD DUP1 DUP6 ADD DUP6 MSTORE PUSH1 0x3 DUP5 ADD SLOAD DUP2 MSTORE PUSH1 0x4 DUP5 ADD SLOAD DUP4 AND ISZERO ISZERO DUP2 DUP9 ADD MSTORE PUSH1 0x60 DUP7 ADD MSTORE DUP4 MLOAD DUP1 DUP6 ADD SWAP1 SWAP5 MSTORE PUSH1 0x5 DUP4 ADD SLOAD DUP5 MSTORE PUSH1 0x6 DUP4 ADD SLOAD SWAP1 SWAP2 AND ISZERO ISZERO DUP4 DUP7 ADD MSTORE PUSH1 0x80 DUP5 ADD SWAP3 SWAP1 SWAP3 MSTORE PUSH1 0x7 DUP2 ADD SLOAD PUSH1 0xA0 DUP5 ADD MSTORE PUSH1 0x8 DUP2 ADD SLOAD PUSH1 0xC0 DUP5 ADD MSTORE PUSH1 0x9 DUP2 ADD SLOAD PUSH1 0xE0 DUP5 ADD MSTORE PUSH1 0xA ADD SLOAD PUSH2 0x100 DUP4 ADD MSTORE SWAP1 DUP4 MSTORE SWAP1 SWAP3 ADD SWAP2 ADD PUSH2 0x5CA JUMP JUMPDEST POP POP POP POP SWAP1 POP SWAP1 JUMP JUMPDEST PUSH1 0x0 DUP1 SLOAD PUSH1 0x2 SLOAD PUSH1 0x1 DUP1 SLOAD PUSH1 0x60 SWAP4 DUP6 SWAP4 PUSH1 0x1 PUSH1 0x1 PUSH1 0xA0 SHL SUB SWAP1 SWAP2 AND SWAP3 SWAP2 PUSH4 0xFFFFFFFF SWAP1 SWAP2 AND SWAP1 DUP3 SWAP1 PUSH2 0x6E9 SWAP1 PUSH2 0x1552 JUMP JUMPDEST DUP1 PUSH1 0x1F ADD PUSH1 0x20 DUP1 SWAP2 DIV MUL PUSH1 0x20 ADD PUSH1 0x40 MLOAD SWAP1 DUP2 ADD PUSH1 0x40 MSTORE DUP1 SWAP3 SWAP2 SWAP1 DUP2 DUP2 MSTORE PUSH1 0x20 ADD DUP3 DUP1 SLOAD PUSH2 0x715 SWAP1 PUSH2 0x1552 JUMP JUMPDEST DUP1 ISZERO PUSH2 0x762 JUMPI DUP1 PUSH1 0x1F LT PUSH2 0x737 JUMPI PUSH2 0x100 DUP1 DUP4 SLOAD DIV MUL DUP4 MSTORE SWAP2 PUSH1 0x20 ADD SWAP2 PUSH2 0x762 JUMP JUMPDEST DUP3 ADD SWAP2 SWAP1 PUSH1 0x0 MSTORE PUSH1 0x20 PUSH1 0x0 KECCAK256 SWAP1 JUMPDEST DUP2 SLOAD DUP2 MSTORE SWAP1 PUSH1 0x1 ADD SWAP1 PUSH1 0x20 ADD DUP1 DUP4 GT PUSH2 0x745 JUMPI DUP3 SWAP1 SUB PUSH1 0x1F AND DUP3 ADD SWAP2 JUMPDEST POP POP POP POP POP SWAP2 POP SWAP3 POP SWAP3 POP SWAP3 POP SWAP1 SWAP2 SWAP3 JUMP JUMPDEST PUSH1 0x60 PUSH1 0x3 DUP1 SLOAD DUP1 PUSH1 0x20 MUL PUSH1 0x20 ADD PUSH1 0x40 MLOAD SWAP1 DUP2 ADD PUSH1 0x40 MSTORE DUP1 SWAP3 SWAP2 SWAP1 DUP2 DUP2 MSTORE PUSH1 0x20 ADD PUSH1 0x0 SWAP1 JUMPDEST DUP3 DUP3 LT ISZERO PUSH2 0x6AF JUMPI PUSH1 0x0 DUP5 DUP2 MSTORE PUSH1 0x20 SWAP1 DUP2 SWAP1 KECCAK256 PUSH1 0x40 DUP1 MLOAD PUSH2 0x220 DUP2 ADD DUP3 MSTORE PUSH1 0x18 DUP7 MUL SWAP1 SWAP3 ADD DUP1 SLOAD PUSH4 0xFFFFFFFF DUP2 AND DUP5 MSTORE PUSH5 0x100000000 SWAP1 DIV PUSH1 0x1 PUSH1 0x1 PUSH1 0xA0 SHL SUB AND DUP4 DUP6 ADD MSTORE DUP2 MLOAD DUP1 DUP4 ADD DUP4 MSTORE PUSH1 0x1 DUP1 DUP4 ADD SLOAD DUP3 MSTORE PUSH1 0x2 DUP4 ADD SLOAD PUSH1 0xFF SWAP1 DUP2 AND ISZERO ISZERO DUP4 DUP9 ADD MSTORE DUP6 DUP6 ADD SWAP3 SWAP1 SWAP3 MSTORE DUP4 MLOAD DUP1 DUP6 ADD DUP6 MSTORE PUSH1 0x3 DUP5 ADD SLOAD DUP2 MSTORE PUSH1 0x4 DUP5 ADD SLOAD DUP4 AND ISZERO ISZERO DUP2 DUP9 ADD MSTORE PUSH1 0x60 DUP7 ADD MSTORE DUP4 MLOAD DUP1 DUP6 ADD DUP6 MSTORE PUSH1 0x5 DUP5 ADD SLOAD DUP2 MSTORE PUSH1 0x6 DUP5 ADD SLOAD DUP4 AND ISZERO ISZERO DUP2 DUP9 ADD MSTORE PUSH1 0x80 DUP7 ADD MSTORE DUP4 MLOAD DUP1 DUP6 ADD DUP6 MSTORE PUSH1 0x7 DUP5 ADD SLOAD DUP2 MSTORE PUSH1 0x8 DUP5 ADD SLOAD DUP4 AND ISZERO ISZERO DUP2 DUP9 ADD MSTORE PUSH1 0xA0 DUP7 ADD MSTORE DUP4 MLOAD DUP1 DUP6 ADD DUP6 MSTORE PUSH1 0x9 DUP5 ADD SLOAD DUP2 MSTORE PUSH1 0xA DUP5 ADD SLOAD DUP4 AND ISZERO ISZERO DUP2 DUP9 ADD MSTORE PUSH1 0xC0 DUP7 ADD MSTORE DUP4 MLOAD DUP1 DUP6 ADD DUP6 MSTORE PUSH1 0xB DUP5 ADD SLOAD DUP2 MSTORE PUSH1 0xC DUP5 ADD SLOAD DUP4 AND ISZERO ISZERO DUP2 DUP9 ADD MSTORE PUSH1 0xE0 DUP7 ADD MSTORE DUP4 MLOAD DUP1 DUP6 ADD DUP6 MSTORE PUSH1 0xD DUP5 ADD SLOAD DUP2 MSTORE PUSH1 0xE DUP5 ADD SLOAD DUP4 AND ISZERO ISZERO DUP2 DUP9 ADD MSTORE PUSH2 0x100 DUP7 ADD MSTORE DUP4 MLOAD DUP1 DUP6 ADD SWAP1 SWAP5 MSTORE PUSH1 0xF DUP4 ADD SLOAD DUP5 MSTORE PUSH1 0x10 DUP4 ADD SLOAD SWAP1 SWAP2 AND ISZERO ISZERO DUP4 DUP7 ADD MSTORE PUSH2 0x120 DUP5 ADD SWAP3 SWAP1 SWAP3 MSTORE PUSH1 0x11 DUP2 ADD SLOAD PUSH2 0x140 DUP5 ADD MSTORE PUSH1 0x12 DUP2 ADD SLOAD PUSH2 0x160 DUP5 ADD MSTORE PUSH1 0x13 DUP2 ADD SLOAD PUSH2 0x180 DUP5 ADD MSTORE PUSH1 0x14 DUP2 ADD SLOAD PUSH2 0x1A0 DUP5 ADD MSTORE PUSH1 0x15 DUP2 ADD SLOAD PUSH2 0x1C0 DUP5 ADD MSTORE PUSH1 0x16 DUP2 ADD SLOAD PUSH2 0x1E0 DUP5 ADD MSTORE PUSH1 0x17 ADD SLOAD PUSH2 0x200 DUP4 ADD MSTORE SWAP1 DUP4 MSTORE SWAP1 SWAP3 ADD SWAP2 ADD PUSH2 0x798 JUMP JUMPDEST PUSH1 0x9 SLOAD PUSH1 0x0 SWAP1 PUSH1 0x1 PUSH1 0x1 PUSH1 0xA0 SHL SUB AND CALLER EQ PUSH2 0x970 JUMPI PUSH1 0x40 MLOAD PUSH3 0x461BCD PUSH1 0xE5 SHL DUP2 MSTORE PUSH1 0x4 ADD PUSH2 0x231 SWAP1 PUSH2 0x1510 JUMP JUMPDEST PUSH1 0x3 PUSH1 0x40 MLOAD DUP1 PUSH2 0x220 ADD PUSH1 0x40 MSTORE DUP1 DUP5 PUSH1 0x0 ADD MLOAD PUSH4 0xFFFFFFFF AND DUP2 MSTORE PUSH1 0x20 ADD DUP5 PUSH1 0x20 ADD MLOAD PUSH1 0x1 PUSH1 0x1 PUSH1 0xA0 SHL SUB AND DUP2 MSTORE PUSH1 0x20 ADD PUSH1 0x40 MLOAD DUP1 PUSH1 0x40 ADD PUSH1 0x40 MSTORE DUP1 DUP7 PUSH1 0x40 ADD MLOAD PUSH1 0x0 ADD MLOAD DUP2 MSTORE PUSH1 0x20 ADD DUP7 PUSH1 0x40 ADD MLOAD PUSH1 0x20 ADD MLOAD ISZERO ISZERO DUP2 MSTORE POP DUP2 MSTORE PUSH1 0x20 ADD PUSH1 0x40 MLOAD DUP1 PUSH1 0x40 ADD PUSH1 0x40 MSTORE DUP1 DUP7 PUSH1 0x60 ADD MLOAD PUSH1 0x0 ADD MLOAD DUP2 MSTORE PUSH1 0x20 ADD DUP7 PUSH1 0x60 ADD MLOAD PUSH1 0x20 ADD MLOAD ISZERO ISZERO DUP2 MSTORE POP DUP2 MSTORE PUSH1 0x20 ADD PUSH1 0x40 MLOAD DUP1 PUSH1 0x40 ADD PUSH1 0x40 MSTORE DUP1 DUP7 PUSH1 0x80 ADD MLOAD PUSH1 0x0 ADD MLOAD DUP2 MSTORE PUSH1 0x20 ADD DUP7 PUSH1 0x80 ADD MLOAD PUSH1 0x20 ADD MLOAD ISZERO ISZERO DUP2 MSTORE POP DUP2 MSTORE PUSH1 0x20 ADD PUSH1 0x40 MLOAD DUP1 PUSH1 0x40 ADD PUSH1 0x40 MSTORE DUP1 DUP7 PUSH1 0xA0 ADD MLOAD PUSH1 0x0 ADD MLOAD DUP2 MSTORE PUSH1 0x20 ADD DUP7 PUSH1 0xA0 ADD MLOAD PUSH1 0x20 ADD MLOAD ISZERO ISZERO DUP2 MSTORE POP DUP2 MSTORE PUSH1 0x20 ADD PUSH1 0x40 MLOAD DUP1 PUSH1 0x40 ADD PUSH1 0x40 MSTORE DUP1 DUP7 PUSH1 0xC0 ADD MLOAD PUSH1 0x0 ADD MLOAD DUP2 MSTORE PUSH1 0x20 ADD DUP7 PUSH1 0xC0 ADD MLOAD PUSH1 0x20 ADD MLOAD ISZERO ISZERO DUP2 MSTORE POP DUP2 MSTORE PUSH1 0x20 ADD PUSH1 0x40 MLOAD DUP1 PUSH1 0x40 ADD PUSH1 0x40 MSTORE DUP1 DUP7 PUSH1 0xE0 ADD MLOAD PUSH1 0x0 ADD MLOAD DUP2 MSTORE PUSH1 0x20 ADD DUP7 PUSH1 0xE0 ADD MLOAD PUSH1 0x20 ADD MLOAD ISZERO ISZERO DUP2 MSTORE POP DUP2 MSTORE PUSH1 0x20 ADD PUSH1 0x40 MLOAD DUP1 PUSH1 0x40 ADD PUSH1 0x40 MSTORE DUP1 DUP7 PUSH2 0x100 ADD MLOAD PUSH1 0x0 ADD MLOAD DUP2 MSTORE PUSH1 0x20 ADD DUP7 PUSH2 0x100 ADD MLOAD PUSH1 0x20 ADD MLOAD ISZERO ISZERO DUP2 MSTORE POP DUP2 MSTORE PUSH1 0x20 ADD PUSH1 0x40 MLOAD DUP1 PUSH1 0x40 ADD PUSH1 0x40 MSTORE DUP1 DUP7 PUSH2 0x120 ADD MLOAD PUSH1 0x0 ADD MLOAD DUP2 MSTORE PUSH1 0x20 ADD DUP7 PUSH2 0x120 ADD MLOAD PUSH1 0x20 ADD MLOAD ISZERO ISZERO DUP2 MSTORE POP DUP2 MSTORE PUSH1 0x20 ADD DUP5 PUSH2 0x140 ADD MLOAD DUP2 MSTORE PUSH1 0x20 ADD DUP5 PUSH2 0x160 ADD MLOAD DUP2 MSTORE PUSH1 0x20 ADD DUP5 PUSH2 0x180 ADD MLOAD DUP2 MSTORE PUSH1 0x20 ADD DUP5 PUSH2 0x1A0 ADD MLOAD DUP2 MSTORE PUSH1 0x20 ADD DUP5 PUSH2 0x1C0 ADD MLOAD DUP2 MSTORE PUSH1 0x20 ADD DUP5 PUSH2 0x1E0 ADD MLOAD DUP2 MSTORE PUSH1 0x20 ADD DUP5 PUSH2 0x200 ADD MLOAD DUP2 MSTORE POP SWAP1 DUP1 PUSH1 0x1 DUP2 SLOAD ADD DUP1 DUP3 SSTORE DUP1 SWAP2 POP POP PUSH1 0x1 SWAP1 SUB SWAP1 PUSH1 0x0 MSTORE PUSH1 0x20 PUSH1 0x0 KECCAK256 SWAP1 PUSH1 0x18 MUL ADD PUSH1 0x0 SWAP1 SWAP2 SWAP1 SWAP2 SWAP1 SWAP2 POP PUSH1 0x0 DUP3 ADD MLOAD DUP2 PUSH1 0x0 ADD PUSH1 0x0 PUSH2 0x100 EXP DUP2 SLOAD DUP2 PUSH4 0xFFFFFFFF MUL NOT AND SWAP1 DUP4 PUSH4 0xFFFFFFFF AND MUL OR SWAP1 SSTORE POP PUSH1 0x20 DUP3 ADD MLOAD DUP2 PUSH1 0x0 ADD PUSH1 0x4 PUSH2 0x100 EXP DUP2 SLOAD DUP2 PUSH1 0x1 PUSH1 0x1 PUSH1 0xA0 SHL SUB MUL NOT AND SWAP1 DUP4 PUSH1 0x1 PUSH1 0x1 PUSH1 0xA0 SHL SUB AND MUL OR SWAP1 SSTORE POP PUSH1 0x40 DUP3 ADD MLOAD DUP2 PUSH1 0x1 ADD PUSH1 0x0 DUP3 ADD MLOAD DUP2 PUSH1 0x0 ADD SSTORE PUSH1 0x20 DUP3 ADD MLOAD DUP2 PUSH1 0x1 ADD PUSH1 0x0 PUSH2 0x100 EXP DUP2 SLOAD DUP2 PUSH1 0xFF MUL NOT AND SWAP1 DUP4 ISZERO ISZERO MUL OR SWAP1 SSTORE POP POP POP PUSH1 0x60 DUP3 ADD MLOAD DUP2 PUSH1 0x3 ADD PUSH1 0x0 DUP3 ADD MLOAD DUP2 PUSH1 0x0 ADD SSTORE PUSH1 0x20 DUP3 ADD MLOAD DUP2 PUSH1 0x1 ADD PUSH1 0x0 PUSH2 0x100 EXP DUP2 SLOAD DUP2 PUSH1 0xFF MUL NOT AND SWAP1 DUP4 ISZERO ISZERO MUL OR SWAP1 SSTORE POP POP POP PUSH1 0x80 DUP3 ADD MLOAD DUP2 PUSH1 0x5 ADD PUSH1 0x0 DUP3 ADD MLOAD DUP2 PUSH1 0x0 ADD SSTORE PUSH1 0x20 DUP3 ADD MLOAD DUP2 PUSH1 0x1 ADD PUSH1 0x0 PUSH2 0x100 EXP DUP2 SLOAD DUP2 PUSH1 0xFF MUL NOT AND SWAP1 DUP4 ISZERO ISZERO MUL OR SWAP1 SSTORE POP POP POP PUSH1 0xA0 DUP3 ADD MLOAD DUP2 PUSH1 0x7 ADD PUSH1 0x0 DUP3 ADD MLOAD DUP2 PUSH1 0x0 ADD SSTORE PUSH1 0x20 DUP3 ADD MLOAD DUP2 PUSH1 0x1 ADD PUSH1 0x0 PUSH2 0x100 EXP DUP2 SLOAD DUP2 PUSH1 0xFF MUL NOT AND SWAP1 DUP4 ISZERO ISZERO MUL OR SWAP1 SSTORE POP POP POP PUSH1 0xC0 DUP3 ADD MLOAD DUP2 PUSH1 0x9 ADD PUSH1 0x0 DUP3 ADD MLOAD DUP2 PUSH1 0x0 ADD SSTORE PUSH1 0x20 DUP3 ADD MLOAD DUP2 PUSH1 0x1 ADD PUSH1 0x0 PUSH2 0x100 EXP DUP2 SLOAD DUP2 PUSH1 0xFF MUL NOT AND SWAP1 DUP4 ISZERO ISZERO MUL OR SWAP1 SSTORE POP POP POP PUSH1 0xE0 DUP3 ADD MLOAD DUP2 PUSH1 0xB ADD PUSH1 0x0 DUP3 ADD MLOAD DUP2 PUSH1 0x0 ADD SSTORE PUSH1 0x20 DUP3 ADD MLOAD DUP2 PUSH1 0x1 ADD PUSH1 0x0 PUSH2 0x100 EXP DUP2 SLOAD DUP2 PUSH1 0xFF MUL NOT AND SWAP1 DUP4 ISZERO ISZERO MUL OR SWAP1 SSTORE POP POP POP PUSH2 0x100 DUP3 ADD MLOAD DUP2 PUSH1 0xD ADD PUSH1 0x0 DUP3 ADD MLOAD DUP2 PUSH1 0x0 ADD SSTORE PUSH1 0x20 DUP3 ADD MLOAD DUP2 PUSH1 0x1 ADD PUSH1 0x0 PUSH2 0x100 EXP DUP2 SLOAD DUP2 PUSH1 0xFF MUL NOT AND SWAP1 DUP4 ISZERO ISZERO MUL OR SWAP1 SSTORE POP POP POP PUSH2 0x120 DUP3 ADD MLOAD DUP2 PUSH1 0xF ADD PUSH1 0x0 DUP3 ADD MLOAD DUP2 PUSH1 0x0 ADD SSTORE PUSH1 0x20 DUP3 ADD MLOAD DUP2 PUSH1 0x1 ADD PUSH1 0x0 PUSH2 0x100 EXP DUP2 SLOAD DUP2 PUSH1 0xFF MUL NOT AND SWAP1 DUP4 ISZERO ISZERO MUL OR SWAP1 SSTORE POP POP POP PUSH2 0x140 DUP3 ADD MLOAD DUP2 PUSH1 0x11 ADD SSTORE PUSH2 0x160 DUP3 ADD MLOAD DUP2 PUSH1 0x12 ADD SSTORE PUSH2 0x180 DUP3 ADD MLOAD DUP2 PUSH1 0x13 ADD SSTORE PUSH2 0x1A0 DUP3 ADD MLOAD DUP2 PUSH1 0x14 ADD SSTORE PUSH2 0x1C0 DUP3 ADD MLOAD DUP2 PUSH1 0x15 ADD SSTORE PUSH2 0x1E0 DUP3 ADD MLOAD DUP2 PUSH1 0x16 ADD SSTORE PUSH2 0x200 DUP3 ADD MLOAD DUP2 PUSH1 0x17 ADD SSTORE POP POP PUSH1 0x1 SWAP1 POP SWAP2 SWAP1 POP JUMP JUMPDEST PUSH1 0x9 SLOAD PUSH1 0x0 SWAP1 PUSH1 0x1 PUSH1 0x1 PUSH1 0xA0 SHL SUB AND CALLER EQ PUSH2 0xDFC JUMPI PUSH1 0x40 MLOAD PUSH3 0x461BCD PUSH1 0xE5 SHL DUP2 MSTORE PUSH1 0x4 ADD PUSH2 0x231 SWAP1 PUSH2 0x1510 JUMP JUMPDEST POP PUSH1 0x40 DUP1 MLOAD DUP1 DUP3 ADD SWAP1 SWAP2 MSTORE DUP4 MLOAD DUP1 DUP3 MSTORE PUSH1 0x20 DUP1 DUP7 ADD MLOAD ISZERO ISZERO SWAP3 ADD DUP3 SWAP1 MSTORE PUSH1 0x5 SSTORE PUSH1 0x6 DUP1 SLOAD PUSH1 0xFF NOT AND SWAP1 SWAP2 OR SWAP1 SSTORE PUSH1 0x7 DUP3 SWAP1 SSTORE PUSH1 0x8 DUP1 SLOAD PUSH4 0xFFFFFFFF DUP4 AND PUSH4 0xFFFFFFFF NOT SWAP1 SWAP2 AND OR SWAP1 SSTORE PUSH1 0x1 SWAP4 SWAP3 POP POP POP JUMP JUMPDEST PUSH4 0x4E487B71 PUSH1 0xE0 SHL PUSH1 0x0 MSTORE PUSH1 0x41 PUSH1 0x4 MSTORE PUSH1 0x24 PUSH1 0x0 REVERT JUMPDEST PUSH1 0x40 MLOAD PUSH2 0x120 DUP2 ADD PUSH8 0xFFFFFFFFFFFFFFFF DUP2 GT DUP3 DUP3 LT OR ISZERO PUSH2 0xE88 JUMPI PUSH2 0xE88 PUSH2 0xE4E JUMP JUMPDEST PUSH1 0x40 MSTORE SWAP1 JUMP JUMPDEST PUSH1 0x40 MLOAD PUSH2 0x220 DUP2 ADD PUSH8 0xFFFFFFFFFFFFFFFF DUP2 GT DUP3 DUP3 LT OR ISZERO PUSH2 0xE88 JUMPI PUSH2 0xE88 PUSH2 0xE4E JUMP JUMPDEST PUSH1 0x40 MLOAD PUSH1 0x1F DUP3 ADD PUSH1 0x1F NOT AND DUP2 ADD PUSH8 0xFFFFFFFFFFFFFFFF DUP2 GT DUP3 DUP3 LT OR ISZERO PUSH2 0xEDB JUMPI PUSH2 0xEDB PUSH2 0xE4E JUMP JUMPDEST PUSH1 0x40 MSTORE SWAP2 SWAP1 POP JUMP JUMPDEST DUP1 CALLDATALOAD PUSH4 0xFFFFFFFF DUP2 AND DUP2 EQ PUSH2 0xEF7 JUMPI PUSH1 0x0 DUP1 REVERT JUMPDEST SWAP2 SWAP1 POP JUMP JUMPDEST DUP1 CALLDATALOAD PUSH1 0x1 PUSH1 0x1 PUSH1 0xA0 SHL SUB DUP2 AND DUP2 EQ PUSH2 0xEF7 JUMPI PUSH1 0x0 DUP1 REVERT JUMPDEST PUSH1 0x0 PUSH1 0x40 DUP3 DUP5 SUB SLT ISZERO PUSH2 0xF25 JUMPI PUSH1 0x0 DUP1 REVERT JUMPDEST PUSH1 0x40 DUP1 MLOAD SWAP1 DUP2 ADD PUSH8 0xFFFFFFFFFFFFFFFF DUP2 GT DUP3 DUP3 LT OR ISZERO PUSH2 0xF48 JUMPI PUSH2 0xF48 PUSH2 0xE4E JUMP JUMPDEST PUSH1 0x40 MSTORE DUP3 CALLDATALOAD DUP2 MSTORE SWAP1 POP DUP1 PUSH1 0x20 DUP4 ADD CALLDATALOAD DUP1 ISZERO ISZERO DUP2 EQ PUSH2 0xF65 JUMPI PUSH1 0x0 DUP1 REVERT JUMPDEST PUSH1 0x20 SWAP2 SWAP1 SWAP2 ADD MSTORE SWAP3 SWAP2 POP POP JUMP JUMPDEST PUSH1 0x0 PUSH2 0x180 DUP3 DUP5 SUB SLT DUP1 ISZERO PUSH2 0xF86 JUMPI PUSH1 0x0 DUP1 REVERT JUMPDEST POP PUSH1 0x0 PUSH2 0xF91 PUSH2 0xE64 JUMP JUMPDEST PUSH2 0xF9A DUP5 PUSH2 0xEE3 JUMP JUMPDEST DUP2 MSTORE PUSH2 0xFA8 PUSH1 0x20 DUP6 ADD PUSH2 0xEFC JUMP JUMPDEST PUSH1 0x20 DUP3 ADD MSTORE PUSH2 0xFBA DUP6 PUSH1 0x40 DUP7 ADD PUSH2 0xF13 JUMP JUMPDEST PUSH1 0x40 DUP3 ADD MSTORE PUSH2 0xFCC DUP6 PUSH1 0x80 DUP7 ADD PUSH2 0xF13 JUMP JUMPDEST PUSH1 0x60 DUP3 ADD MSTORE PUSH2 0xFDE DUP6 PUSH1 0xC0 DUP7 ADD PUSH2 0xF13 JUMP JUMPDEST PUSH1 0x80 DUP3 ADD MSTORE PUSH2 0x100 DUP5 DUP2 ADD CALLDATALOAD PUSH1 0xA0 DUP4 ADD MSTORE PUSH2 0x120 DUP6 ADD CALLDATALOAD PUSH1 0xC0 DUP4 ADD MSTORE PUSH2 0x140 DUP6 ADD CALLDATALOAD PUSH1 0xE0 DUP4 ADD MSTORE PUSH2 0x160 SWAP1 SWAP5 ADD CALLDATALOAD SWAP4 DUP2 ADD SWAP4 SWAP1 SWAP4 MSTORE POP SWAP1 SWAP3 SWAP2 POP POP JUMP JUMPDEST PUSH1 0x0 DUP1 PUSH1 0x40 DUP4 DUP6 SUB SLT ISZERO PUSH2 0x102E JUMPI PUSH1 0x0 DUP1 REVERT JUMPDEST DUP3 CALLDATALOAD PUSH8 0xFFFFFFFFFFFFFFFF DUP2 GT ISZERO PUSH2 0x1045 JUMPI PUSH1 0x0 DUP1 REVERT JUMPDEST DUP4 ADD PUSH1 0x1F DUP2 ADD DUP6 SGT PUSH2 0x1056 JUMPI PUSH1 0x0 DUP1 REVERT JUMPDEST DUP1 CALLDATALOAD PUSH8 0xFFFFFFFFFFFFFFFF DUP2 GT ISZERO PUSH2 0x1070 JUMPI PUSH2 0x1070 PUSH2 0xE4E JUMP JUMPDEST PUSH2 0x1083 PUSH1 0x1F DUP3 ADD PUSH1 0x1F NOT AND PUSH1 0x20 ADD PUSH2 0xEB2 JUMP JUMPDEST DUP2 DUP2 MSTORE DUP7 PUSH1 0x20 DUP4 DUP6 ADD ADD GT ISZERO PUSH2 0x1098 JUMPI PUSH1 0x0 DUP1 REVERT JUMPDEST DUP2 PUSH1 0x20 DUP5 ADD PUSH1 0x20 DUP4 ADD CALLDATACOPY PUSH1 0x0 PUSH1 0x20 DUP4 DUP4 ADD ADD MSTORE DUP1 SWAP5 POP POP POP POP PUSH2 0x10BD PUSH1 0x20 DUP5 ADD PUSH2 0xEE3 JUMP JUMPDEST SWAP1 POP SWAP3 POP SWAP3 SWAP1 POP JUMP JUMPDEST PUSH1 0x20 DUP1 DUP3 MSTORE DUP3 MLOAD DUP3 DUP3 ADD DUP2 SWAP1 MSTORE PUSH1 0x0 SWAP2 DUP5 ADD SWAP1 PUSH1 0x40 DUP5 ADD SWAP1 DUP4 JUMPDEST DUP2 DUP2 LT ISZERO PUSH2 0x11A3 JUMPI DUP4 MLOAD PUSH4 0xFFFFFFFF DUP2 MLOAD AND DUP5 MSTORE PUSH1 0x20 DUP2 ADD MLOAD PUSH2 0x110E PUSH1 0x20 DUP7 ADD DUP3 PUSH1 0x1 PUSH1 0x1 PUSH1 0xA0 SHL SUB AND SWAP1 MSTORE JUMP JUMPDEST POP PUSH1 0x40 DUP2 ADD MLOAD PUSH2 0x112D PUSH1 0x40 DUP7 ADD DUP3 DUP1 MLOAD DUP3 MSTORE PUSH1 0x20 SWAP1 DUP2 ADD MLOAD ISZERO ISZERO SWAP2 ADD MSTORE JUMP JUMPDEST POP PUSH1 0x60 DUP2 ADD MLOAD DUP1 MLOAD PUSH1 0x80 DUP7 ADD MSTORE PUSH1 0x20 DUP2 ADD MLOAD ISZERO ISZERO PUSH1 0xA0 DUP7 ADD MSTORE POP PUSH1 0x80 DUP2 ADD MLOAD DUP1 MLOAD PUSH1 0xC0 DUP7 ADD MSTORE PUSH1 0x20 DUP2 ADD MLOAD ISZERO ISZERO PUSH1 0xE0 DUP7 ADD MSTORE POP PUSH1 0xA0 DUP2 ADD MLOAD PUSH2 0x100 DUP6 DUP2 ADD SWAP2 SWAP1 SWAP2 MSTORE PUSH1 0xC0 DUP3 ADD MLOAD PUSH2 0x120 DUP7 ADD MSTORE PUSH1 0xE0 DUP3 ADD MLOAD PUSH2 0x140 DUP7 ADD MSTORE ADD MLOAD PUSH2 0x160 DUP5 ADD MSTORE PUSH1 0x20 SWAP4 SWAP1 SWAP4 ADD SWAP3 PUSH2 0x180 SWAP1 SWAP3 ADD SWAP2 PUSH1 0x1 ADD PUSH2 0x10E0 JUMP JUMPDEST POP SWAP1 SWAP6 SWAP5 POP POP POP POP POP JUMP JUMPDEST PUSH1 0x1 DUP1 PUSH1 0xA0 SHL SUB DUP5 AND DUP2 MSTORE PUSH1 0x60 PUSH1 0x20 DUP3 ADD MSTORE PUSH1 0x0 DUP4 MLOAD DUP1 PUSH1 0x60 DUP5 ADD MSTORE PUSH1 0x0 JUMPDEST DUP2 DUP2 LT ISZERO PUSH2 0x11EA JUMPI PUSH1 0x20 DUP2 DUP8 ADD DUP2 ADD MLOAD PUSH1 0x80 DUP7 DUP5 ADD ADD MSTORE ADD PUSH2 0x11CD JUMP JUMPDEST POP PUSH1 0x0 PUSH1 0x80 DUP3 DUP6 ADD ADD MSTORE PUSH1 0x80 PUSH1 0x1F NOT PUSH1 0x1F DUP4 ADD AND DUP5 ADD ADD SWAP2 POP POP PUSH4 0xFFFFFFFF DUP4 AND PUSH1 0x40 DUP4 ADD MSTORE SWAP5 SWAP4 POP POP POP POP JUMP JUMPDEST PUSH1 0x20 DUP1 DUP3 MSTORE DUP3 MLOAD DUP3 DUP3 ADD DUP2 SWAP1 MSTORE PUSH1 0x0 SWAP2 DUP5 ADD SWAP1 PUSH1 0x40 DUP5 ADD SWAP1 DUP4 JUMPDEST DUP2 DUP2 LT ISZERO PUSH2 0x11A3 JUMPI DUP4 MLOAD DUP1 MLOAD PUSH4 0xFFFFFFFF AND DUP5 MSTORE PUSH1 0x20 DUP2 ADD MLOAD PUSH2 0x1260 PUSH1 0x20 DUP7 ADD DUP3 PUSH1 0x1 PUSH1 0x1 PUSH1 0xA0 SHL SUB AND SWAP1 MSTORE JUMP JUMPDEST POP PUSH1 0x40 DUP2 ADD MLOAD PUSH2 0x127F PUSH1 0x40 DUP7 ADD DUP3 DUP1 MLOAD DUP3 MSTORE PUSH1 0x20 SWAP1 DUP2 ADD MLOAD ISZERO ISZERO SWAP2 ADD MSTORE JUMP JUMPDEST POP PUSH1 0x60 DUP2 ADD MLOAD DUP1 MLOAD PUSH1 0x80 DUP7 ADD MSTORE PUSH1 0x20 DUP2 ADD MLOAD ISZERO ISZERO PUSH1 0xA0 DUP7 ADD MSTORE POP PUSH1 0x80 DUP2 ADD MLOAD DUP1 MLOAD PUSH1 0xC0 DUP7 ADD MSTORE PUSH1 0x20 DUP2 ADD MLOAD ISZERO ISZERO PUSH1 0xE0 DUP7 ADD MSTORE POP PUSH1 0xA0 DUP2 ADD MLOAD DUP1 MLOAD PUSH2 0x100 DUP7 ADD MSTORE PUSH1 0x20 DUP2 ADD MLOAD ISZERO ISZERO PUSH2 0x120 DUP7 ADD MSTORE POP PUSH1 0xC0 DUP2 ADD MLOAD DUP1 MLOAD PUSH2 0x140 DUP7 ADD MSTORE PUSH1 0x20 DUP2 ADD MLOAD ISZERO ISZERO PUSH2 0x160 DUP7 ADD MSTORE POP PUSH1 0xE0 DUP2 ADD MLOAD DUP1 MLOAD PUSH2 0x180 DUP7 ADD MSTORE PUSH1 0x20 DUP2 ADD MLOAD ISZERO ISZERO PUSH2 0x1A0 DUP7 ADD MSTORE POP PUSH2 0x100 DUP2 ADD MLOAD DUP1 MLOAD PUSH2 0x1C0 DUP7 ADD MSTORE PUSH1 0x20 DUP2 ADD MLOAD ISZERO ISZERO PUSH2 0x1E0 DUP7 ADD MSTORE POP PUSH2 0x120 DUP2 ADD MLOAD DUP1 MLOAD PUSH2 0x200 DUP7 ADD MSTORE PUSH1 0x20 DUP2 ADD MLOAD ISZERO ISZERO PUSH2 0x220 DUP7 ADD MSTORE POP PUSH2 0x140 DUP2 ADD MLOAD PUSH2 0x240 DUP6 ADD MSTORE PUSH2 0x160 DUP2 ADD MLOAD PUSH2 0x260 DUP6 ADD MSTORE PUSH2 0x180 DUP2 ADD MLOAD PUSH2 0x280 DUP6 ADD MSTORE PUSH2 0x1A0 DUP2 ADD MLOAD PUSH2 0x2A0 DUP6 ADD MSTORE PUSH2 0x1C0 DUP2 ADD MLOAD PUSH2 0x2C0 DUP6 ADD MSTORE PUSH2 0x1E0 DUP2 ADD MLOAD PUSH2 0x2E0 DUP6 ADD MSTORE PUSH2 0x200 ADD MLOAD PUSH2 0x300 DUP5 ADD MSTORE PUSH1 0x20 SWAP4 SWAP1 SWAP4 ADD SWAP3 PUSH2 0x320 SWAP1 SWAP3 ADD SWAP2 PUSH1 0x1 ADD PUSH2 0x1232 JUMP JUMPDEST PUSH1 0x0 PUSH2 0x320 DUP3 DUP5 SUB SLT DUP1 ISZERO PUSH2 0x13B8 JUMPI PUSH1 0x0 DUP1 REVERT JUMPDEST POP PUSH1 0x0 PUSH2 0x13C3 PUSH2 0xE8E JUMP JUMPDEST PUSH2 0x13CC DUP5 PUSH2 0xEE3 JUMP JUMPDEST DUP2 MSTORE PUSH2 0x13DA PUSH1 0x20 DUP6 ADD PUSH2 0xEFC JUMP JUMPDEST PUSH1 0x20 DUP3 ADD MSTORE PUSH2 0x13EC DUP6 PUSH1 0x40 DUP7 ADD PUSH2 0xF13 JUMP JUMPDEST PUSH1 0x40 DUP3 ADD MSTORE PUSH2 0x13FE DUP6 PUSH1 0x80 DUP7 ADD PUSH2 0xF13 JUMP JUMPDEST PUSH1 0x60 DUP3 ADD MSTORE PUSH2 0x1410 DUP6 PUSH1 0xC0 DUP7 ADD PUSH2 0xF13 JUMP JUMPDEST PUSH1 0x80 DUP3 ADD MSTORE PUSH2 0x1423 DUP6 PUSH2 0x100 DUP7 ADD PUSH2 0xF13 JUMP JUMPDEST PUSH1 0xA0 DUP3 ADD MSTORE PUSH2 0x1436 DUP6 PUSH2 0x140 DUP7 ADD PUSH2 0xF13 JUMP JUMPDEST PUSH1 0xC0 DUP3 ADD MSTORE PUSH2 0x1449 DUP6 PUSH2 0x180 DUP7 ADD PUSH2 0xF13 JUMP JUMPDEST PUSH1 0xE0 DUP3 ADD MSTORE PUSH2 0x145C DUP6 PUSH2 0x1C0 DUP7 ADD PUSH2 0xF13 JUMP JUMPDEST PUSH2 0x100 DUP3 ADD MSTORE PUSH2 0x1470 DUP6 PUSH2 0x200 DUP7 ADD PUSH2 0xF13 JUMP JUMPDEST PUSH2 0x120 DUP3 ADD MSTORE PUSH2 0x240 DUP5 ADD CALLDATALOAD PUSH2 0x140 DUP3 ADD MSTORE PUSH2 0x260 DUP5 ADD CALLDATALOAD PUSH2 0x160 DUP3 ADD MSTORE PUSH2 0x280 DUP5 ADD CALLDATALOAD PUSH2 0x180 DUP3 ADD MSTORE PUSH2 0x2A0 DUP5 ADD CALLDATALOAD PUSH2 0x1A0 DUP3 ADD MSTORE PUSH2 0x2C0 DUP5 ADD CALLDATALOAD PUSH2 0x1C0 DUP3 ADD MSTORE PUSH2 0x2E0 DUP5 ADD CALLDATALOAD PUSH2 0x1E0 DUP3 ADD MSTORE PUSH2 0x300 SWAP1 SWAP4 ADD CALLDATALOAD PUSH2 0x200 DUP5 ADD MSTORE POP SWAP1 SWAP3 SWAP2 POP POP JUMP JUMPDEST PUSH1 0x0 DUP1 PUSH1 0x0 PUSH1 0x80 DUP5 DUP7 SUB SLT ISZERO PUSH2 0x14E8 JUMPI PUSH1 0x0 DUP1 REVERT JUMPDEST PUSH2 0x14F2 DUP6 DUP6 PUSH2 0xF13 JUMP JUMPDEST SWAP3 POP PUSH1 0x40 DUP5 ADD CALLDATALOAD SWAP2 POP PUSH2 0x1507 PUSH1 0x60 DUP6 ADD PUSH2 0xEE3 JUMP JUMPDEST SWAP1 POP SWAP3 POP SWAP3 POP SWAP3 JUMP JUMPDEST PUSH1 0x20 DUP1 DUP3 MSTORE PUSH1 0x22 SWAP1 DUP3 ADD MSTORE PUSH32 0x4F6E6C7920746865206F776E65722063616E2061646420636F6D6D69746D656E PUSH1 0x40 DUP3 ADD MSTORE PUSH2 0x7473 PUSH1 0xF0 SHL PUSH1 0x60 DUP3 ADD MSTORE PUSH1 0x80 ADD SWAP1 JUMP JUMPDEST PUSH1 0x1 DUP2 DUP2 SHR SWAP1 DUP3 AND DUP1 PUSH2 0x1566 JUMPI PUSH1 0x7F DUP3 AND SWAP2 POP JUMPDEST PUSH1 0x20 DUP3 LT DUP2 SUB PUSH2 0x1586 JUMPI PUSH4 0x4E487B71 PUSH1 0xE0 SHL PUSH1 0x0 MSTORE PUSH1 0x22 PUSH1 0x4 MSTORE PUSH1 0x24 PUSH1 0x0 REVERT JUMPDEST POP SWAP2 SWAP1 POP JUMP JUMPDEST PUSH1 0x1F DUP3 GT ISZERO PUSH2 0x15E3 JUMPI DUP3 DUP3 GT ISZERO PUSH2 0x15E3 JUMPI DUP1 PUSH1 0x0 MSTORE PUSH1 0x20 PUSH1 0x0 KECCAK256 PUSH1 0x1F DUP5 ADD PUSH1 0x5 SHR PUSH1 0x20 DUP6 LT ISZERO PUSH2 0x15BA JUMPI POP PUSH1 0x0 JUMPDEST SWAP1 DUP2 ADD SWAP1 PUSH1 0x1F DUP5 ADD PUSH1 0x5 SHR SUB PUSH1 0x0 JUMPDEST DUP2 DUP2 LT ISZERO PUSH2 0x15DF JUMPI PUSH1 0x0 DUP4 DUP3 ADD SSTORE PUSH1 0x1 ADD PUSH2 0x15C9 JUMP JUMPDEST POP POP POP JUMPDEST POP POP POP JUMP JUMPDEST DUP2 MLOAD PUSH8 0xFFFFFFFFFFFFFFFF DUP2 GT ISZERO PUSH2 0x1602 JUMPI PUSH2 0x1602 PUSH2 0xE4E JUMP JUMPDEST PUSH2 0x1616 DUP2 PUSH2 0x1610 DUP5 SLOAD PUSH2 0x1552 JUMP JUMPDEST DUP5 PUSH2 0x158C JUMP JUMPDEST PUSH1 0x20 PUSH1 0x1F DUP3 GT PUSH1 0x1 DUP2 EQ PUSH2 0x164A JUMPI PUSH1 0x0 DUP4 ISZERO PUSH2 0x1632 JUMPI POP DUP5 DUP3 ADD MLOAD JUMPDEST PUSH1 0x0 NOT PUSH1 0x3 DUP6 SWAP1 SHL SHR NOT AND PUSH1 0x1 DUP5 SWAP1 SHL OR DUP5 SSTORE PUSH2 0x16A4 JUMP JUMPDEST PUSH1 0x0 DUP5 DUP2 MSTORE PUSH1 0x20 DUP2 KECCAK256 PUSH1 0x1F NOT DUP6 AND SWAP2 JUMPDEST DUP3 DUP2 LT ISZERO PUSH2 0x167A JUMPI DUP8 DUP6 ADD MLOAD DUP3 SSTORE PUSH1 0x20 SWAP5 DUP6 ADD SWAP5 PUSH1 0x1 SWAP1 SWAP3 ADD SWAP2 ADD PUSH2 0x165A JUMP JUMPDEST POP DUP5 DUP3 LT ISZERO PUSH2 0x1698 JUMPI DUP7 DUP5 ADD MLOAD PUSH1 0x0 NOT PUSH1 0x3 DUP8 SWAP1 SHL PUSH1 0xF8 AND SHR NOT AND DUP2 SSTORE JUMPDEST POP POP PUSH1 0x1 DUP4 PUSH1 0x1 SHL ADD DUP5 SSTORE JUMPDEST POP POP POP POP POP JUMP INVALID LOG2 PUSH5 0x6970667358 0x22 SLT KECCAK256 0xDB PUSH1 0xA7 0xCF 0xC6 SWAP1 DUPN 0x5B 0xD3 SHR 0xC8 CALLVALUE SWAP4 PUSH16 0xAF4DAE8468DB0B3F41F5B4AA1472EACF 0x4F 0x4E PUSH5 0x736F6C6343 STOP ADDMOD 0x23 STOP CALLER ",
  "sha1": "4942f79160900902091847b04bebd42c365b3908",
  "source": "// SPDX-License-Identifier: MIT1\n\n// Solidity Contract to accumulate Greenhouse Gas (GHG) Emissions\n// on an ethereum blockchain.\n\n// The contract is set up by an entity that produces a product or service\n// Data about the product or service is loaded onto the blockchain by the owner.\n// Indirect emissions are managed by either linking to the smart contact provided by the supplier\n// or by uploading the data directly to the blockchain.\n\n// Data in the smart contracts is encrypted using Pedersen Commitments (off-chain)\n// The Commitments can be accumulated to give the total GHG emissions for the product or service.\n// The random numbers used to generate the Pedersen Commitments are stored off-chain and communicated between\n// the supplier and the owner of the smart contract.\n// The entity (owner of the smart contract) can then provide a proof of the total GHG emissions using the\n// random numbers used to generate the Pedersen Commitments.\n\n// Author for Review, Dec. 2024\n// Licensed under MIT License\n\n//contract definition\n\npragma solidity ^0.8.0;\n\ncontract ZK_Receivables {\n    //structures definitions\n\n    // structure to store the commitment information for a receivable\n    struct commitment {\n        uint256 commitment_x;\n        bool commitment_y_odd;\n    }\n\n    // structure to hold the ZK_proofs for a receivable;\n    struct ZK_proofs {\n        uint32 receivable_ID;\n        address debtor_contract_address;\n        commitment c1;\n        commitment c2;\n        commitment c3;\n        commitment T1;\n        commitment T2;\n        commitment T3;\n        commitment T4;\n        commitment hvik; // commitment to h^vik value for the proof\n        uint256 s1;\n        uint256 s2;\n        uint256 s3;\n        uint256 s4;\n        uint256 s5;\n        uint256 s6;\n        uint256 k;\n    }\n\n    struct ZK_binary_proof {\n        uint32 receivable_ID;\n        address debtor_contract_address;\n        commitment l;\n        commitment a0;\n        commitment a1;\n        uint256 k;\n        uint256 c1;\n        uint256 r0;\n        uint256 r1;\n    }\n\n    // structure to hold the total of the commitments for an entity\n    // and the total of the random factors used to generate the commitments for the entity\n    struct total_commitments {\n        commitment total_commitment; // total commitment for the entity\n        uint256 total_random_factor; // total of the random factors used to generate the commitments for the entity\n        uint32 total_receivables; // total of receivables for the entity\n    }\n\n    // Data structure to store the description of the entity\n    struct description_struct {\n        address owner;\n        string owner_name;\n        uint32 owner_ID;\n    }\n\n    // State variables - stored in the smart contract\n\n    description_struct private description; // description of the entity that owes the receivables\n    ZK_proofs[] private ZK_receivables; // array of receivables for the entity\n    ZK_binary_proof[] private ZK_binary_receivables; // array of binary proofs for receivables for the entity\n    total_commitments private total_commitments_entity; // total commitments for the entity\n    address public owner; // owner (entity) of the smart contract which is public\n\n    // Constructor function\n    // The owner of the smart contract is set to the address of the sender\n    // The owner name and owner_ID are  initialized\n\n    constructor() {\n        owner = msg.sender;\n        description.owner = owner; // owner of the smart contract i.e. entity that is confirming receivables\n        // initialize the description\n        description.owner_name = \"\";\n        description.owner_ID = 0;\n    }\n\n    //functions\n\n    // Function that the owner can use to set the description of contract\n\n    function set_description(\n        string memory _owner_name,\n        uint32 _owner_ID\n    ) public returns (bool) {\n        require(msg.sender == owner, \"Only the owner can set the description\");\n        description.owner_name = _owner_name;\n        description.owner_ID = _owner_ID;\n        return true;\n    }\n\n    // Function to get the description of the contract - anybody can use this function\n\n    function get_description()\n        public\n        view\n        returns (\n            address, // owner\n            string memory, // owner_name\n            uint32 // owner_ID\n        )\n    {\n        return (\n            description.owner,\n            description.owner_name,\n            description.owner_ID\n        );\n    }\n\n    // Function to set the commitments to various receivables (customers) - only the owner can use this function\n\n    function set_ZK_receivable(\n        ZK_proofs memory _ZK_proof\n    ) public returns (bool) {\n        require(msg.sender == owner, \"Only the owner can add commitments\");\n        // Add commitment to the array\n        ZK_receivables.push(\n            ZK_proofs({\n                receivable_ID: _ZK_proof.receivable_ID,\n                debtor_contract_address: _ZK_proof.debtor_contract_address,\n                c1: commitment({\n                    commitment_x: _ZK_proof.c1.commitment_x,\n                    commitment_y_odd: _ZK_proof.c1.commitment_y_odd\n                }),\n                c2: commitment({\n                    commitment_x: _ZK_proof.c2.commitment_x,\n                    commitment_y_odd: _ZK_proof.c2.commitment_y_odd\n                }),\n                c3: commitment({\n                    commitment_x: _ZK_proof.c3.commitment_x,\n                    commitment_y_odd: _ZK_proof.c3.commitment_y_odd\n                }),\n                T1: commitment({\n                    commitment_x: _ZK_proof.T1.commitment_x,\n                    commitment_y_odd: _ZK_proof.T1.commitment_y_odd\n                }),\n                T2: commitment({\n                    commitment_x: _ZK_proof.T2.commitment_x,\n                    commitment_y_odd: _ZK_proof.T2.commitment_y_odd\n                }),\n                T3: commitment({\n                    commitment_x: _ZK_proof.T3.commitment_x,\n                    commitment_y_odd: _ZK_proof.T3.commitment_y_odd\n                }),\n                T4: commitment({\n                    commitment_x: _ZK_proof.T4.commitment_x,\n                    commitment_y_odd: _ZK_proof.T4.commitment_y_odd\n                }),\n                hvik: commitment({\n                    commitment_x: _ZK_proof.hvik.commitment_x,\n                    commitment_y_odd: _ZK_proof.hvik.commitment_y_odd\n                }),\n                s1: _ZK_proof.s1,\n                s2: _ZK_proof.s2,\n                s3: _ZK_proof.s3,\n                s4: _ZK_proof.s4,\n                s5: _ZK_proof.s5,\n                s6: _ZK_proof.s6,\n                k: _ZK_proof.k\n            })\n        );\n        return true;\n    }\n\n    function set_ZK_receivable_binary(\n        ZK_binary_proof memory _ZK_b_proof\n    ) public returns (bool) {\n        require(msg.sender == owner, \"Only the owner can add commitments\");\n        // Add commitment to the array\n        ZK_binary_receivables.push(\n            ZK_binary_proof({\n                receivable_ID: _ZK_b_proof.receivable_ID,\n                debtor_contract_address: _ZK_b_proof.debtor_contract_address,\n                l: commitment({\n                    commitment_x: _ZK_b_proof.l.commitment_x,\n                    commitment_y_odd: _ZK_b_proof.l.commitment_y_odd\n                }),\n                a0: commitment({\n                    commitment_x: _ZK_b_proof.a0.commitment_x,\n                    commitment_y_odd: _ZK_b_proof.a0.commitment_y_odd\n                }),\n                a1: commitment({\n                    commitment_x: _ZK_b_proof.a1.commitment_x,\n                    commitment_y_odd: _ZK_b_proof.a1.commitment_y_odd\n                }),\n                k: _ZK_b_proof.k,\n                c1: _ZK_b_proof.c1,\n                r0: _ZK_b_proof.r0,\n                r1: _ZK_b_proof.r1\n            })\n        );\n        return true;\n    }\n\n    function set_total_commitments(\n        commitment memory _total_commitments,\n        uint256 _total_random_factor,\n        uint32 _total_receivables\n    ) public returns (bool) {\n        require(msg.sender == owner, \"Only the owner can add commitments\");\n        // Set total commitment\n        total_commitments_entity.total_commitment = commitment({\n            commitment_x: _total_commitments.commitment_x,\n            commitment_y_odd: _total_commitments.commitment_y_odd\n        });\n        total_commitments_entity.total_random_factor = _total_random_factor;\n        total_commitments_entity.total_receivables = _total_receivables;\n\n        return true;\n    }\n\n    // Function to get all the commitments to various receivables (customers) - anybody can use this function\n    // Anybody can use this function\n\n    function get_ZK_receivables() public view returns (ZK_proofs[] memory) {\n        return ZK_receivables;\n    }\n\n    function get_ZK_binary_receivables()\n        public\n        view\n        returns (ZK_binary_proof[] memory)\n    {\n        return ZK_binary_receivables;\n    }\n\n    function get_total_commitments()\n        public\n        view\n        returns (total_commitments memory)\n    {\n        return total_commitments_entity;\n    }\n}\n",
  "sourcePath": "contracts/ZK_Receivables.sol",
  "type": "contract"
}