{
  "abi": [
    {
      "inputs": [],
      "stateMutability": "nonpayable",
      "type": "constructor"
    },
    {
      "inputs": [],
      "name": "get_commitments",
      "outputs": [
        {
          "components": [
            {
              "internalType": "uint32",
              "name": "commitment_ID",
              "type": "uint32"
            },
            {
              "internalType": "uint256",
              "name": "commitment_x",
              "type": "uint256"
            },
            {
              "internalType": "bool",
              "name": "commitment_y_odd",
              "type": "bool"
            },
            {
              "internalType": "uint256",
              "name": "r",
              "type": "uint256"
            }
          ],
          "internalType": "struct ZK_Debtors.commitment[]",
          "name": "",
          "type": "tuple[]"
        }
      ],
      "stateMutability": "view",
      "type": "function"
    },
    {
      "inputs": [],
      "name": "get_description",
      "outputs": [
        {
          "internalType": "address",
          "name": "",
          "type": "address"
        },
        {
          "internalType": "string",
          "name": "",
          "type": "string"
        },
        {
          "internalType": "uint32",
          "name": "",
          "type": "uint32"
        }
      ],
      "stateMutability": "view",
      "type": "function"
    },
    {
      "inputs": [],
      "name": "owner",
      "outputs": [
        {
          "internalType": "address",
          "name": "",
          "type": "address"
        }
      ],
      "stateMutability": "view",
      "type": "function"
    },
    {
      "inputs": [
        {
          "internalType": "uint16",
          "name": "_commitment_ID",
          "type": "uint16"
        },
        {
          "internalType": "uint256",
          "name": "_payable_commitment",
          "type": "uint256"
        },
        {
          "internalType": "bool",
          "name": "_payable_commitment_y_odd",
          "type": "bool"
        }
      ],
      "name": "set_commitment",
      "outputs": [
        {
          "internalType": "bool",
          "name": "",
          "type": "bool"
        }
      ],
      "stateMutability": "nonpayable",
      "type": "function"
    },
    {
      "inputs": [
        {
          "internalType": "string",
          "name": "_owner_name",
          "type": "string"
        },
        {
          "internalType": "uint32",
          "name": "_owner_ID",
          "type": "uint32"
        }
      ],
      "name": "set_description",
      "outputs": [
        {
          "internalType": "bool",
          "name": "",
          "type": "bool"
        }
      ],
      "stateMutability": "nonpayable",
      "type": "function"
    }
  ],
  "bytecode": "608060405234801561001057600080fd5b5060048054336001600160a01b03199182168117909255600080549091169091178155604080516020810190915290815260019061004e908261010d565b506002805463ffffffff191690556101cf565b634e487b7160e01b600052604160045260246000fd5b600181811c9082168061008b57607f821691505b6020821081036100ab57634e487b7160e01b600052602260045260246000fd5b50919050565b601f821115610108578282111561010857806000526020600020601f840160051c60208510156100df575060005b90810190601f840160051c0360005b81811015610104576000838201556001016100ee565b5050505b505050565b81516001600160401b0381111561012657610126610061565b61013a816101348454610077565b846100b1565b6020601f82116001811461016e57600083156101565750848201515b600019600385901b1c1916600184901b1784556101c8565b600084815260208120601f198516915b8281101561019e578785015182556020948501946001909201910161017e565b50848210156101bc5786840151600019600387901b60f8161c191681555b505060018360011b0184555b5050505050565b610897806101de6000396000f3fe608060405234801561001057600080fd5b50600436106100575760003560e01c806330d74f511461005c578063839d7f11146100845780638da5cb5b1461009b578063d264c745146100c6578063e88404f4146100d9575b600080fd5b61006f61006a3660046104ff565b6100ee565b60405190151581526020015b60405180910390f35b61008c61018c565b60405161007b939291906105c9565b6004546100ae906001600160a01b031681565b6040516001600160a01b03909116815260200161007b565b61006f6100d4366004610633565b610248565b6100e1610444565b60405161007b9190610681565b6004546000906001600160a01b0316331461015f5760405162461bcd60e51b815260206004820152602660248201527f4f6e6c7920746865206f776e65722063616e207365742074686520646573637260448201526534b83a34b7b760d11b60648201526084015b60405180910390fd5b600161016b8482610788565b50506002805463ffffffff831663ffffffff19909116179055600192915050565b600080546002546001805460609385936001600160a01b03909116929163ffffffff9091169082906101bd906106f2565b80601f01602080910402602001604051908101604052809291908181526020018280546101e9906106f2565b80156102365780601f1061020b57610100808354040283529160200191610236565b820191906000526020600020905b81548152906001019060200180831161021957829003601f168201915b50505050509150925092509250909192565b6004546000906001600160a01b031633146102b05760405162461bcd60e51b815260206004820152602260248201527f4f6e6c7920746865206f776e65722063616e2061646420636f6d6d69746d656e604482015261747360f01b6064820152608401610156565b60005b600354811015610341578461ffff16600382815481106102d5576102d561084b565b600091825260209091206004909102015463ffffffff16036103395760405162461bcd60e51b815260206004820152601c60248201527f436f6d6d69746d656e7420494420616c726561647920657869737473000000006044820152606401610156565b6001016102b3565b50506040805160808101825261ffff9490941684526020840192835290151590830190815260006060840181815260038054600180820183559190935294517fc2575a0e9e593c00f959f8c92f12db2869c3395a3b0502d05e2516446f71f85b6004909302928301805463ffffffff191663ffffffff90921691909117905592517fc2575a0e9e593c00f959f8c92f12db2869c3395a3b0502d05e2516446f71f85c82015590517fc2575a0e9e593c00f959f8c92f12db2869c3395a3b0502d05e2516446f71f85d8201805460ff191691151591909117905590517fc2575a0e9e593c00f959f8c92f12db2869c3395a3b0502d05e2516446f71f85e9091015590565b60606003805480602002602001604051908101604052809291908181526020016000905b828210156104c75760008481526020908190206040805160808101825260048602909201805463ffffffff16835260018082015484860152600282015460ff161515928401929092526003015460608301529083529092019101610468565b50505050905090565b634e487b7160e01b600052604160045260246000fd5b803563ffffffff811681146104fa57600080fd5b919050565b6000806040838503121561051257600080fd5b823567ffffffffffffffff81111561052957600080fd5b8301601f8101851361053a57600080fd5b803567ffffffffffffffff811115610554576105546104d0565b604051601f8201601f19908116603f0116810167ffffffffffffffff81118282101715610583576105836104d0565b60405281815282820160200187101561059b57600080fd5b816020840160208301376000602083830101528094505050506105c0602084016104e6565b90509250929050565b60018060a01b0384168152606060208201526000835180606084015260005b8181101561060557602081870181015160808684010152016105e8565b506000608082850101526080601f19601f83011684010191505063ffffffff83166040830152949350505050565b60008060006060848603121561064857600080fd5b833561ffff8116811461065a57600080fd5b9250602084013591506040840135801515811461067657600080fd5b809150509250925092565b602080825282518282018190526000918401906040840190835b818110156106e757835163ffffffff815116845260208101516020850152604081015115156040850152606081015160608501525060808301925060208401935060018101905061069b565b509095945050505050565b600181811c9082168061070657607f821691505b60208210810361072657634e487b7160e01b600052602260045260246000fd5b50919050565b601f821115610783578282111561078357806000526020600020601f840160051c602085101561075a575060005b90810190601f840160051c0360005b8181101561077f57600083820155600101610769565b5050505b505050565b815167ffffffffffffffff8111156107a2576107a26104d0565b6107b6816107b084546106f2565b8461072c565b6020601f8211600181146107ea57600083156107d25750848201515b600019600385901b1c1916600184901b178455610844565b600084815260208120601f198516915b8281101561081a57878501518255602094850194600190920191016107fa565b50848210156108385786840151600019600387901b60f8161c191681555b505060018360011b0184555b5050505050565b634e487b7160e01b600052603260045260246000fdfea264697066735822122086f2a3edfaa994bc9c579d718468c2f1ae4cf1c9a04933120b2bf412f89e1b9164736f6c63430008230033",
  "bytecodeSha1": "707c81e3ec755bc7067fb1476ee2d2697bb8930c",
  "compiler": {
    "evm_version": "istanbul",
    "optimizer": {
      "enabled": true,
      "runs": 200
    },
    "version": "0.8.35+commit.47b9dedd"
  },
  "contractName": "ZK_Debtors",
  "language": "Solidity",
  "natspec": {
    "kind": "dev",
    "methods": {},
    "version": 1
  },
  "opcodes": "PUSH1 0x80 PUSH1 0x40 MSTORE CALLVALUE DUP1 ISZERO PUSH2 0x10 JUMPI PUSH1 0x0 DUP1 REVERT JUMPDEST POP PUSH1 0x4 CALLDATASIZE LT PUSH2 0x57 JUMPI PUSH1 0x0 CALLDATALOAD PUSH1 0xE0 SHR DUP1 PUSH4 0x30D74F51 EQ PUSH2 0x5C JUMPI DUP1 PUSH4 0x839D7F11 EQ PUSH2 0x84 JUMPI DUP1 PUSH4 0x8DA5CB5B EQ PUSH2 0x9B JUMPI DUP1 PUSH4 0xD264C745 EQ PUSH2 0xC6 JUMPI DUP1 PUSH4 0xE88404F4 EQ PUSH2 0xD9 JUMPI JUMPDEST PUSH1 0x0 DUP1 REVERT JUMPDEST PUSH2 0x6F PUSH2 0x6A CALLDATASIZE PUSH1 0x4 PUSH2 0x4FF JUMP JUMPDEST PUSH2 0xEE JUMP JUMPDEST PUSH1 0x40 MLOAD SWAP1 ISZERO ISZERO DUP2 MSTORE PUSH1 0x20 ADD JUMPDEST PUSH1 0x40 MLOAD DUP1 SWAP2 SUB SWAP1 RETURN JUMPDEST PUSH2 0x8C PUSH2 0x18C JUMP JUMPDEST PUSH1 0x40 MLOAD PUSH2 0x7B SWAP4 SWAP3 SWAP2 SWAP1 PUSH2 0x5C9 JUMP JUMPDEST PUSH1 0x4 SLOAD PUSH2 0xAE SWAP1 PUSH1 0x1 PUSH1 0x1 PUSH1 0xA0 SHL SUB AND DUP2 JUMP JUMPDEST PUSH1 0x40 MLOAD PUSH1 0x1 PUSH1 0x1 PUSH1 0xA0 SHL SUB SWAP1 SWAP2 AND DUP2 MSTORE PUSH1 0x20 ADD PUSH2 0x7B JUMP JUMPDEST PUSH2 0x6F PUSH2 0xD4 CALLDATASIZE PUSH1 0x4 PUSH2 0x633 JUMP JUMPDEST PUSH2 0x248 JUMP JUMPDEST PUSH2 0xE1 PUSH2 0x444 JUMP JUMPDEST PUSH1 0x40 MLOAD PUSH2 0x7B SWAP2 SWAP1 PUSH2 0x681 JUMP JUMPDEST PUSH1 0x4 SLOAD PUSH1 0x0 SWAP1 PUSH1 0x1 PUSH1 0x1 PUSH1 0xA0 SHL SUB AND CALLER EQ PUSH2 0x15F JUMPI PUSH1 0x40 MLOAD PUSH3 0x461BCD PUSH1 0xE5 SHL DUP2 MSTORE PUSH1 0x20 PUSH1 0x4 DUP3 ADD MSTORE PUSH1 0x26 PUSH1 0x24 DUP3 ADD MSTORE PUSH32 0x4F6E6C7920746865206F776E65722063616E2073657420746865206465736372 PUSH1 0x44 DUP3 ADD MSTORE PUSH6 0x34B83A34B7B7 PUSH1 0xD1 SHL PUSH1 0x64 DUP3 ADD MSTORE PUSH1 0x84 ADD JUMPDEST PUSH1 0x40 MLOAD DUP1 SWAP2 SUB SWAP1 REVERT JUMPDEST PUSH1 0x1 PUSH2 0x16B DUP5 DUP3 PUSH2 0x788 JUMP JUMPDEST POP POP PUSH1 0x2 DUP1 SLOAD PUSH4 0xFFFFFFFF DUP4 AND PUSH4 0xFFFFFFFF NOT SWAP1 SWAP2 AND OR SWAP1 SSTORE PUSH1 0x1 SWAP3 SWAP2 POP POP JUMP JUMPDEST PUSH1 0x0 DUP1 SLOAD PUSH1 0x2 SLOAD PUSH1 0x1 DUP1 SLOAD PUSH1 0x60 SWAP4 DUP6 SWAP4 PUSH1 0x1 PUSH1 0x1 PUSH1 0xA0 SHL SUB SWAP1 SWAP2 AND SWAP3 SWAP2 PUSH4 0xFFFFFFFF SWAP1 SWAP2 AND SWAP1 DUP3 SWAP1 PUSH2 0x1BD SWAP1 PUSH2 0x6F2 JUMP JUMPDEST DUP1 PUSH1 0x1F ADD PUSH1 0x20 DUP1 SWAP2 DIV MUL PUSH1 0x20 ADD PUSH1 0x40 MLOAD SWAP1 DUP2 ADD PUSH1 0x40 MSTORE DUP1 SWAP3 SWAP2 SWAP1 DUP2 DUP2 MSTORE PUSH1 0x20 ADD DUP3 DUP1 SLOAD PUSH2 0x1E9 SWAP1 PUSH2 0x6F2 JUMP JUMPDEST DUP1 ISZERO PUSH2 0x236 JUMPI DUP1 PUSH1 0x1F LT PUSH2 0x20B JUMPI PUSH2 0x100 DUP1 DUP4 SLOAD DIV MUL DUP4 MSTORE SWAP2 PUSH1 0x20 ADD SWAP2 PUSH2 0x236 JUMP JUMPDEST DUP3 ADD SWAP2 SWAP1 PUSH1 0x0 MSTORE PUSH1 0x20 PUSH1 0x0 KECCAK256 SWAP1 JUMPDEST DUP2 SLOAD DUP2 MSTORE SWAP1 PUSH1 0x1 ADD SWAP1 PUSH1 0x20 ADD DUP1 DUP4 GT PUSH2 0x219 JUMPI DUP3 SWAP1 SUB PUSH1 0x1F AND DUP3 ADD SWAP2 JUMPDEST POP POP POP POP POP SWAP2 POP SWAP3 POP SWAP3 POP SWAP3 POP SWAP1 SWAP2 SWAP3 JUMP JUMPDEST PUSH1 0x4 SLOAD PUSH1 0x0 SWAP1 PUSH1 0x1 PUSH1 0x1 PUSH1 0xA0 SHL SUB AND CALLER EQ PUSH2 0x2B0 JUMPI PUSH1 0x40 MLOAD PUSH3 0x461BCD PUSH1 0xE5 SHL DUP2 MSTORE PUSH1 0x20 PUSH1 0x4 DUP3 ADD MSTORE PUSH1 0x22 PUSH1 0x24 DUP3 ADD MSTORE PUSH32 0x4F6E6C7920746865206F776E65722063616E2061646420636F6D6D69746D656E PUSH1 0x44 DUP3 ADD MSTORE PUSH2 0x7473 PUSH1 0xF0 SHL PUSH1 0x64 DUP3 ADD MSTORE PUSH1 0x84 ADD PUSH2 0x156 JUMP JUMPDEST PUSH1 0x0 JUMPDEST PUSH1 0x3 SLOAD DUP2 LT ISZERO PUSH2 0x341 JUMPI DUP5 PUSH2 0xFFFF AND PUSH1 0x3 DUP3 DUP2 SLOAD DUP2 LT PUSH2 0x2D5 JUMPI PUSH2 0x2D5 PUSH2 0x84B JUMP JUMPDEST PUSH1 0x0 SWAP2 DUP3 MSTORE PUSH1 0x20 SWAP1 SWAP2 KECCAK256 PUSH1 0x4 SWAP1 SWAP2 MUL ADD SLOAD PUSH4 0xFFFFFFFF AND SUB PUSH2 0x339 JUMPI PUSH1 0x40 MLOAD PUSH3 0x461BCD PUSH1 0xE5 SHL DUP2 MSTORE PUSH1 0x20 PUSH1 0x4 DUP3 ADD MSTORE PUSH1 0x1C PUSH1 0x24 DUP3 ADD MSTORE PUSH32 0x436F6D6D69746D656E7420494420616C72656164792065786973747300000000 PUSH1 0x44 DUP3 ADD MSTORE PUSH1 0x64 ADD PUSH2 0x156 JUMP JUMPDEST PUSH1 0x1 ADD PUSH2 0x2B3 JUMP JUMPDEST POP POP PUSH1 0x40 DUP1 MLOAD PUSH1 0x80 DUP2 ADD DUP3 MSTORE PUSH2 0xFFFF SWAP5 SWAP1 SWAP5 AND DUP5 MSTORE PUSH1 0x20 DUP5 ADD SWAP3 DUP4 MSTORE SWAP1 ISZERO ISZERO SWAP1 DUP4 ADD SWAP1 DUP2 MSTORE PUSH1 0x0 PUSH1 0x60 DUP5 ADD DUP2 DUP2 MSTORE PUSH1 0x3 DUP1 SLOAD PUSH1 0x1 DUP1 DUP3 ADD DUP4 SSTORE SWAP2 SWAP1 SWAP4 MSTORE SWAP5 MLOAD PUSH32 0xC2575A0E9E593C00F959F8C92F12DB2869C3395A3B0502D05E2516446F71F85B PUSH1 0x4 SWAP1 SWAP4 MUL SWAP3 DUP4 ADD DUP1 SLOAD PUSH4 0xFFFFFFFF NOT AND PUSH4 0xFFFFFFFF SWAP1 SWAP3 AND SWAP2 SWAP1 SWAP2 OR SWAP1 SSTORE SWAP3 MLOAD PUSH32 0xC2575A0E9E593C00F959F8C92F12DB2869C3395A3B0502D05E2516446F71F85C DUP3 ADD SSTORE SWAP1 MLOAD PUSH32 0xC2575A0E9E593C00F959F8C92F12DB2869C3395A3B0502D05E2516446F71F85D DUP3 ADD DUP1 SLOAD PUSH1 0xFF NOT AND SWAP2 ISZERO ISZERO SWAP2 SWAP1 SWAP2 OR SWAP1 SSTORE SWAP1 MLOAD PUSH32 0xC2575A0E9E593C00F959F8C92F12DB2869C3395A3B0502D05E2516446F71F85E SWAP1 SWAP2 ADD SSTORE SWAP1 JUMP JUMPDEST PUSH1 0x60 PUSH1 0x3 DUP1 SLOAD DUP1 PUSH1 0x20 MUL PUSH1 0x20 ADD PUSH1 0x40 MLOAD SWAP1 DUP2 ADD PUSH1 0x40 MSTORE DUP1 SWAP3 SWAP2 SWAP1 DUP2 DUP2 MSTORE PUSH1 0x20 ADD PUSH1 0x0 SWAP1 JUMPDEST DUP3 DUP3 LT ISZERO PUSH2 0x4C7 JUMPI PUSH1 0x0 DUP5 DUP2 MSTORE PUSH1 0x20 SWAP1 DUP2 SWAP1 KECCAK256 PUSH1 0x40 DUP1 MLOAD PUSH1 0x80 DUP2 ADD DUP3 MSTORE PUSH1 0x4 DUP7 MUL SWAP1 SWAP3 ADD DUP1 SLOAD PUSH4 0xFFFFFFFF AND DUP4 MSTORE PUSH1 0x1 DUP1 DUP3 ADD SLOAD DUP5 DUP7 ADD MSTORE PUSH1 0x2 DUP3 ADD SLOAD PUSH1 0xFF AND ISZERO ISZERO SWAP3 DUP5 ADD SWAP3 SWAP1 SWAP3 MSTORE PUSH1 0x3 ADD SLOAD PUSH1 0x60 DUP4 ADD MSTORE SWAP1 DUP4 MSTORE SWAP1 SWAP3 ADD SWAP2 ADD PUSH2 0x468 JUMP JUMPDEST POP POP POP POP SWAP1 POP SWAP1 JUMP JUMPDEST PUSH4 0x4E487B71 PUSH1 0xE0 SHL PUSH1 0x0 MSTORE PUSH1 0x41 PUSH1 0x4 MSTORE PUSH1 0x24 PUSH1 0x0 REVERT JUMPDEST DUP1 CALLDATALOAD PUSH4 0xFFFFFFFF DUP2 AND DUP2 EQ PUSH2 0x4FA JUMPI PUSH1 0x0 DUP1 REVERT JUMPDEST SWAP2 SWAP1 POP JUMP JUMPDEST PUSH1 0x0 DUP1 PUSH1 0x40 DUP4 DUP6 SUB SLT ISZERO PUSH2 0x512 JUMPI PUSH1 0x0 DUP1 REVERT JUMPDEST DUP3 CALLDATALOAD PUSH8 0xFFFFFFFFFFFFFFFF DUP2 GT ISZERO PUSH2 0x529 JUMPI PUSH1 0x0 DUP1 REVERT JUMPDEST DUP4 ADD PUSH1 0x1F DUP2 ADD DUP6 SGT PUSH2 0x53A JUMPI PUSH1 0x0 DUP1 REVERT JUMPDEST DUP1 CALLDATALOAD PUSH8 0xFFFFFFFFFFFFFFFF DUP2 GT ISZERO PUSH2 0x554 JUMPI PUSH2 0x554 PUSH2 0x4D0 JUMP JUMPDEST PUSH1 0x40 MLOAD PUSH1 0x1F DUP3 ADD PUSH1 0x1F NOT SWAP1 DUP2 AND PUSH1 0x3F ADD AND DUP2 ADD PUSH8 0xFFFFFFFFFFFFFFFF DUP2 GT DUP3 DUP3 LT OR ISZERO PUSH2 0x583 JUMPI PUSH2 0x583 PUSH2 0x4D0 JUMP JUMPDEST PUSH1 0x40 MSTORE DUP2 DUP2 MSTORE DUP3 DUP3 ADD PUSH1 0x20 ADD DUP8 LT ISZERO PUSH2 0x59B JUMPI PUSH1 0x0 DUP1 REVERT JUMPDEST DUP2 PUSH1 0x20 DUP5 ADD PUSH1 0x20 DUP4 ADD CALLDATACOPY PUSH1 0x0 PUSH1 0x20 DUP4 DUP4 ADD ADD MSTORE DUP1 SWAP5 POP POP POP POP PUSH2 0x5C0 PUSH1 0x20 DUP5 ADD PUSH2 0x4E6 JUMP JUMPDEST SWAP1 POP SWAP3 POP SWAP3 SWAP1 POP JUMP JUMPDEST PUSH1 0x1 DUP1 PUSH1 0xA0 SHL SUB DUP5 AND DUP2 MSTORE PUSH1 0x60 PUSH1 0x20 DUP3 ADD MSTORE PUSH1 0x0 DUP4 MLOAD DUP1 PUSH1 0x60 DUP5 ADD MSTORE PUSH1 0x0 JUMPDEST DUP2 DUP2 LT ISZERO PUSH2 0x605 JUMPI PUSH1 0x20 DUP2 DUP8 ADD DUP2 ADD MLOAD PUSH1 0x80 DUP7 DUP5 ADD ADD MSTORE ADD PUSH2 0x5E8 JUMP JUMPDEST POP PUSH1 0x0 PUSH1 0x80 DUP3 DUP6 ADD ADD MSTORE PUSH1 0x80 PUSH1 0x1F NOT PUSH1 0x1F DUP4 ADD AND DUP5 ADD ADD SWAP2 POP POP PUSH4 0xFFFFFFFF DUP4 AND PUSH1 0x40 DUP4 ADD MSTORE SWAP5 SWAP4 POP POP POP POP JUMP JUMPDEST PUSH1 0x0 DUP1 PUSH1 0x0 PUSH1 0x60 DUP5 DUP7 SUB SLT ISZERO PUSH2 0x648 JUMPI PUSH1 0x0 DUP1 REVERT JUMPDEST DUP4 CALLDATALOAD PUSH2 0xFFFF DUP2 AND DUP2 EQ PUSH2 0x65A JUMPI PUSH1 0x0 DUP1 REVERT JUMPDEST SWAP3 POP PUSH1 0x20 DUP5 ADD CALLDATALOAD SWAP2 POP PUSH1 0x40 DUP5 ADD CALLDATALOAD DUP1 ISZERO ISZERO DUP2 EQ PUSH2 0x676 JUMPI PUSH1 0x0 DUP1 REVERT JUMPDEST DUP1 SWAP2 POP POP SWAP3 POP SWAP3 POP SWAP3 JUMP JUMPDEST PUSH1 0x20 DUP1 DUP3 MSTORE DUP3 MLOAD DUP3 DUP3 ADD DUP2 SWAP1 MSTORE PUSH1 0x0 SWAP2 DUP5 ADD SWAP1 PUSH1 0x40 DUP5 ADD SWAP1 DUP4 JUMPDEST DUP2 DUP2 LT ISZERO PUSH2 0x6E7 JUMPI DUP4 MLOAD PUSH4 0xFFFFFFFF DUP2 MLOAD AND DUP5 MSTORE PUSH1 0x20 DUP2 ADD MLOAD PUSH1 0x20 DUP6 ADD MSTORE PUSH1 0x40 DUP2 ADD MLOAD ISZERO ISZERO PUSH1 0x40 DUP6 ADD MSTORE PUSH1 0x60 DUP2 ADD MLOAD PUSH1 0x60 DUP6 ADD MSTORE POP PUSH1 0x80 DUP4 ADD SWAP3 POP PUSH1 0x20 DUP5 ADD SWAP4 POP PUSH1 0x1 DUP2 ADD SWAP1 POP PUSH2 0x69B JUMP JUMPDEST POP SWAP1 SWAP6 SWAP5 POP POP POP POP POP JUMP JUMPDEST PUSH1 0x1 DUP2 DUP2 SHR SWAP1 DUP3 AND DUP1 PUSH2 0x706 JUMPI PUSH1 0x7F DUP3 AND SWAP2 POP JUMPDEST PUSH1 0x20 DUP3 LT DUP2 SUB PUSH2 0x726 JUMPI PUSH4 0x4E487B71 PUSH1 0xE0 SHL PUSH1 0x0 MSTORE PUSH1 0x22 PUSH1 0x4 MSTORE PUSH1 0x24 PUSH1 0x0 REVERT JUMPDEST POP SWAP2 SWAP1 POP JUMP JUMPDEST PUSH1 0x1F DUP3 GT ISZERO PUSH2 0x783 JUMPI DUP3 DUP3 GT ISZERO PUSH2 0x783 JUMPI DUP1 PUSH1 0x0 MSTORE PUSH1 0x20 PUSH1 0x0 KECCAK256 PUSH1 0x1F DUP5 ADD PUSH1 0x5 SHR PUSH1 0x20 DUP6 LT ISZERO PUSH2 0x75A JUMPI POP PUSH1 0x0 JUMPDEST SWAP1 DUP2 ADD SWAP1 PUSH1 0x1F DUP5 ADD PUSH1 0x5 SHR SUB PUSH1 0x0 JUMPDEST DUP2 DUP2 LT ISZERO PUSH2 0x77F JUMPI PUSH1 0x0 DUP4 DUP3 ADD SSTORE PUSH1 0x1 ADD PUSH2 0x769 JUMP JUMPDEST POP POP POP JUMPDEST POP POP POP JUMP JUMPDEST DUP2 MLOAD PUSH8 0xFFFFFFFFFFFFFFFF DUP2 GT ISZERO PUSH2 0x7A2 JUMPI PUSH2 0x7A2 PUSH2 0x4D0 JUMP JUMPDEST PUSH2 0x7B6 DUP2 PUSH2 0x7B0 DUP5 SLOAD PUSH2 0x6F2 JUMP JUMPDEST DUP5 PUSH2 0x72C JUMP JUMPDEST PUSH1 0x20 PUSH1 0x1F DUP3 GT PUSH1 0x1 DUP2 EQ PUSH2 0x7EA JUMPI PUSH1 0x0 DUP4 ISZERO PUSH2 0x7D2 JUMPI POP DUP5 DUP3 ADD MLOAD JUMPDEST PUSH1 0x0 NOT PUSH1 0x3 DUP6 SWAP1 SHL SHR NOT AND PUSH1 0x1 DUP5 SWAP1 SHL OR DUP5 SSTORE PUSH2 0x844 JUMP JUMPDEST PUSH1 0x0 DUP5 DUP2 MSTORE PUSH1 0x20 DUP2 KECCAK256 PUSH1 0x1F NOT DUP6 AND SWAP2 JUMPDEST DUP3 DUP2 LT ISZERO PUSH2 0x81A JUMPI DUP8 DUP6 ADD MLOAD DUP3 SSTORE PUSH1 0x20 SWAP5 DUP6 ADD SWAP5 PUSH1 0x1 SWAP1 SWAP3 ADD SWAP2 ADD PUSH2 0x7FA JUMP JUMPDEST POP DUP5 DUP3 LT ISZERO PUSH2 0x838 JUMPI DUP7 DUP5 ADD MLOAD PUSH1 0x0 NOT PUSH1 0x3 DUP8 SWAP1 SHL PUSH1 0xF8 AND SHR NOT AND DUP2 SSTORE JUMPDEST POP POP PUSH1 0x1 DUP4 PUSH1 0x1 SHL ADD DUP5 SSTORE JUMPDEST POP POP POP POP POP JUMP JUMPDEST PUSH4 0x4E487B71 PUSH1 0xE0 SHL PUSH1 0x0 MSTORE PUSH1 0x32 PUSH1 0x4 MSTORE PUSH1 0x24 PUSH1 0x0 REVERT INVALID LOG2 PUSH5 0x6970667358 0x22 SLT KECCAK256 DUP7 CALLCODE LOG3 0xED STATICCALL 0xA9 SWAP5 0xBC SWAP13 JUMPI SWAP14 PUSH18 0x8468C2F1AE4CF1C9A04933120B2BF412F89E SHL SWAP2 PUSH5 0x736F6C6343 STOP ADDMOD 0x23 STOP CALLER ",
  "sha1": "4384fd9ec833046548a5481d919f8ec95b91ad90",
  "source": "// SPDX-License-Identifier: MIT1\n\n// Solidity Contract to allows debtors to acknowledge their debts to various entities (suppliers) \n// on an ethereum blockchain.\n\n// The contract is set up by an debtor that has an obligation to an entity.\n// A commitment to the debtor is loaded onto the blockchain by the owner (debtor).\n\n// Data in the smart contracts is encrypted using Pedersen Commitments (off-chain)\n// and is used to verify the commitments off-chain without revealing the actual data\n// by using zero-knowledge proofs (ZKPs) loaded onto the blockchain by the\n// entity (supplier) that is owed the debt.\n\n// Author for Review, Dec. 2024\n// Licensed under MIT License\n\n//contract definition\n\npragma solidity ^0.8.0;\n\ncontract ZK_Debtors {\n    //structures definitions\n\n    struct commitment {\n        uint32 commitment_ID;\n        uint256 commitment_x;\n        bool commitment_y_odd;\n        uint256 r;\n    }\n\n    // Data structure to store the description of the product or service\n    struct description_struct {\n        address owner;\n        string owner_name;\n        uint32 owner_ID;\n    }\n\n    // State variables - stored in the smart contract\n\n    description_struct private description; // description of the product or service\n    commitment[] private commitments; // array of commitments to an entity\n    address public owner; // owner of the smart contract which is public\n\n    // Constructor function\n    // The owner of the smart contract is set to the address of the sender\n    // The owner name and owner_ID are  initialized\n\n    constructor() {\n        owner = msg.sender;\n        description.owner = owner; // owner of the smart contract i.e. entity that produces the product or service\n        // initialize the description\n        description.owner_name = \"\";\n        description.owner_ID = 0;\n    }\n\n    //functions\n\n    // Function that the owner can use to set the description of contract\n\n    function set_description(\n        string memory _owner_name,\n        uint32 _owner_ID\n    ) public returns (bool) {\n        require(msg.sender == owner, \"Only the owner can set the description\");\n        description.owner_name = _owner_name;\n        description.owner_ID = _owner_ID;\n        return true;\n    }\n\n    // Function to get the description of the contract - anybody can use this function\n\n    function get_description()\n        public\n        view\n        returns (\n            address, // owner\n            string memory, // owner_name\n            uint32 // owner_ID\n        )\n    {\n        return (\n            description.owner,\n            description.owner_name,\n            description.owner_ID\n        );\n    }\n\n    // Function to set the commitments to various entities (suppliers) - only the owner can use this function\n\n    function set_commitment(\n        uint16 _commitment_ID,\n        uint256 _payable_commitment,\n        bool _payable_commitment_y_odd\n    ) public returns (bool) {\n        require(msg.sender == owner, \"Only the owner can add commitments\");\n        // Check if the commitment ID already exists\n        for (uint i = 0; i < commitments.length; i++) {\n            require(\n                commitments[i].commitment_ID != _commitment_ID,\n                \"Commitment ID already exists\"\n            );\n        }\n        // Add commitment to the array\n        commitments.push(\n            commitment({\n                commitment_ID: _commitment_ID,\n                commitment_x: _payable_commitment,\n                commitment_y_odd: _payable_commitment_y_odd,\n                r: 0\n            })\n        );\n        return true;\n    }\n\n    // Function to get all the commitments to various entities (suppliers) - anybody can use this function\n    // Anybody can use this function\n\n    function get_commitments() public view returns (commitment[] memory) {\n        return commitments;\n    }\n}\n",
  "sourcePath": "contracts/ZK_Debtors.sol",
  "type": "contract"
}